:020000040800F2
:1000000000900020E92D0008B52D0008B72D00084C
:1000100000000000000000000000000000000000E0
:10002000000000000000000000000000B92D0008E2
:100030000000000000000000BB2D0008BD2D0008DE
:10004000392E000800000000392E0008392E000863
:10005000392E0008392E0008392E0008392E0008E4
:1000600000000000392E0008392E0008392E000843
:10007000392E0008392E0008392E00080000000033
:10008000C52D0008392E0008392E0008392E000829
:10009000392E0008392E0008392E0008392E0008A4
:1000A000392E0008392E0008392E0008392E000894
:0800B000392E0008392E00086A
:1000B80010B5064C2378002B07D1054B002B02D036
:1000C800044800E000BF0123237010BD4004002055
:1000D80000000000D0300008044B10B5002B03D0FE
:1000E8000349044800E000BF10BDC04600000000FE
:1000F80044040020D0300008002243088B4274D307
:1001080003098B425FD3030A8B4244D3030B8B4210
:1001180028D3030C8B420DD3FF22090212BA030C19
:100128008B4202D31212090265D0030B8B4219D3FA
:1001380000E0090AC30B8B4201D3CB03C01A52411A
:10014800830B8B4201D38B03C01A5241430B8B4262
:1001580001D34B03C01A5241030B8B4201D30B034B
:10016800C01A5241C30A8B4201D3CB02C01A524172
:10017800830A8B4201D38B02C01A5241430A8B4235
:1001880001D34B02C01A5241030A8B4201D30B021E
:10019800C01A5241CDD2C3098B4201D3CB01C01A38
:1001A800524183098B4201D38B01C01A5241430942
:1001B8008B4201D34B01C01A524103098B4201D330
:1001C8000B01C01A5241C3088B4201D3CB00C01A9D
:1001D800524183088B4201D38B00C01A5241430815
:1001E8008B4201D34B00C01A5241411A00D201463A
:1001F800524110467047FFE701B5002000F0F0F8C3
:1002080002BDC0460029F7D076E7704703460B4386
:100218007FD4002243088B4274D303098B425FD3F7
:10022800030A8B4244D3030B8B4228D3030C8B4223
:100238000DD3FF22090212BA030C8B4202D3121209
:10024800090265D0030B8B4219D300E0090AC30BDE
:100258008B4201D3CB03C01A5241830B8B4201D38B
:100268008B03C01A5241430B8B4201D34B03C01A74
:100278005241030B8B4201D30B03C01A5241C30AEC
:100288008B4201D3CB02C01A5241830A8B4201D35D
:100298008B02C01A5241430A8B4201D34B02C01A47
:1002A8005241030A8B4201D30B02C01A5241CDD2EC
:1002B800C3098B4201D3CB01C01A524183098B4237
:1002C80001D38B01C01A524143098B4201D34B0120
:1002D800C01A524103098B4201D30B01C01A524183
:1002E800C3088B4201D3CB00C01A524183088B420A
:1002F80001D38B00C01A524143088B4201D34B00F3
:10030800C01A5241411A00D2014652411046704764
:100318005DE0CA0F00D04942031000D34042534069
:1003280000229C4603098B422DD3030A8B4212D329
:10033800FC22890112BA030A8B420CD3890192115B
:100348008B4208D3890192118B4204D389013AD098
:10035800921100E08909C3098B4201D3CB01C01A6D
:10036800524183098B4201D38B01C01A5241430980
:100378008B4201D34B01C01A524103098B4201D36E
:100388000B01C01A5241C3088B4201D3CB00C01ADB
:10039800524183088B4201D38B00C01A5241D9D2F3
:1003A80043088B4201D34B00C01A5241411A00D274
:1003B8000146634652415B10104601D34042002B70
:1003C80000D54942704763465B1000D3404201B5EF
:1003D800002000F005F802BD0029F8D016E77047A4
:1003E8007047C04610B50400114B1968002901D1A7
:1003F800012010BDFA208000FFF77EFE01000D4BA2
:100408001868FFF779FE00F099F800280DD1032C41
:1004180001D90120EDE7013000222100404200F01F
:1004280051F8054B1C600020E3E70120E1E7C046D6
:1004380000000020080000200400002010B5084A31
:10044800116880235B000B4313600020FFF7CAFF8D
:10045800041E02D00124200010BD02F0BDFBFAE703
:1004680000200240034A1368034909685B181360B7
:100478007047C0465C04002000000020014B18684B
:100488007047C0465C04002070B50400FFF7F6FF13
:100498000500631C02D0044B1B68E418FFF7EEFF4D
:1004A800401BA042FAD370BD00000020034A136825
:1004B80003490B40034313607047C04600000140E6
:1004C800FFF9FFFF70B5002811DB8308134EC03316
:1004D8009B009D5903242040C000FF221400844043
:1004E800A54389010A4082402A439A5170BD0F23CF
:1004F8000340083B9B0806339B00094A9446634423
:100508005C6803221040C000FC3215008540AC43F3
:1005180089010A40824022435A60E7E700E100E08F
:1005280000ED00E0002805DB1F2318401E3B834038
:10053800014A13607047C04600E100E0013880239B
:100548005B0498420FD2094A50600948036A1B02AB
:100558001B0AC02109060B4303620023936007337B
:100568001360002070470120FCE7C04610E000E05F
:1005780000ED00E0F0B5D6464F464646C0B500232C
:100588003BE0032600E00026A64034003C435A4ED8
:100598001832920094518022B4584A46D243260019
:1005A8004D46AE434D68ED0302D54D462C4326001B
:1005B800514C8027E6518426A459260016404D68E0
:1005C800AD0302D54D462C4326004B4C8427E651FB
:1005D8002468260016404D68ED0202D54D462C438E
:1005E8002600454C2660646822404D68AD0201D55E
:1005F8004A462243404C626001330C682200DA40CC
:1006080075D001229A4025001540A9461442F3D01E
:100618004C68022C01D0122C0ED1DC080834A4003E
:10062800275807261E40B6000F25B540AF430D6971
:10063800B5402E003E4326500468A4465E000324BD
:10064800A2462700B740B846FF4365464446A5433F
:10065800AC464C68554625402C00B44065462C43B2
:1006680004604C68651E012D03D9112C01D0122C91
:1006780013D184683C40A446CC68B44065462C43FA
:1006880084604468944322004C682409A4460124E9
:1006980065462C409C4014434460C26817408A68F1
:1006A800B2403A43C2604A68D200A5D59A081400FD
:1006B8001834A400104EA75903241C40E4000F2648
:1006C800A640B743A026F605B04200D15BE70B4E23
:1006D800B04208D00A4EB04207D00A4EB04200D10C
:1006E8004FE7052650E701264EE702264CE7E0BC17
:1006F800BA46B146A846F0BD0018024000040050B2
:1007080000080050000C0050002A01D08161704799
:100718008162FCE74369194201D0816270478161B7
:10072800FCE703689A69920701D500229A62036878
:100738009A69D20703D49A6901210A439A617047DA
:10074800F0B5059C05686868660D8027FF0037408E
:10075800054E3E43B0438905890D120411431943E0
:10076800214301436960F0BDFF63FF03F8B505004D
:100778000F00160003689B69DB0601D40020F8BD52
:100788002B689C69A20615D47B1CF9D0FFF776FE6E
:10079800801BB84201D8002FF2D16B6C2022134382
:1007A8006B644123EA5400232232AB54023AAB541F
:1007B8000120E4E71022DA612B682024DC6128009C
:1007C800FFF7AFFF2A68536807490B4053606B6C0B
:1007D800042213436B644123EC5400233E32AB5490
:1007E800023AAB540120CAE700E800FE70B50400E5
:1007F8000D00160023689B699B071CD43200290052
:100808002000FFF7B3FF002817D16B1CF2D0FFF7C9
:1008180035FE801BA84201D8002DEBD1636C202245
:10082800134363644123E25400232232A354023A5F
:10083800A354012000E0002070BD0120FCE7F0B5C2
:10084800C64600B507000D0090461E003B689C692F
:100858002C40641B63425C41444516D1731CF5D09F
:10086800FFF70CFE069BC01AB04201D8002EEDD14E
:100878007B6C202213437B644123FA5400232232E9
:10088800BB54023ABB54012000E0002080BCB846AB
:10089800F0BD70B505000C0016002B689B699B061F
:1008A8001AD4320021002800FFF760FF002815D174
:1008B800FFF7E4FD801BA04201D8002CEDD16B6C42
:1008C800202213436B644123EA5400232232AB54A1
:1008D800023AAB54012070BD0020FCE70120FAE782
:1008E80070B504000D00160023689B695B0733D4BC
:1008F800320029002000FFF739FF00282ED1236895
:100908009A69920611D4FFF7B9FD801BA84201D855
:10091800002DE9D1636C2022134363644123E25420
:10092800013B0022E254012070BD9A69520702D5AA
:10093800228D002AF8D12022DA6121684B68084804
:1009480003404B6000236364412162542232A35464
:10095800023AA3540120E7E70020E5E70120E3E796
:1009680000E800FE10B5041E59D04123C35C002BDB
:1009780043D041232422E2542268136801218B4387
:1009880013602268274B61680B40136122689368E3
:1009980025490B409360E368012B34D022688423F7
:1009A8001B02A1680B439360E368022B32D02268D4
:1009B80051681E4B0B4353602268D3681A490B4099
:1009C800D360236962691343A26912022168134341
:1009D800CB602268E369216A0B43136022681368BD
:1009E80001210B4313600023636441221F31A1548A
:1009F80023630132A354002010BD40330022C254A7
:100A080002F006F9B5E7226880231B02A1680B43B0
:100A18009360C9E72368802212015A60C7E7012062
:100A2800EAE7C046FFFFFFF0FF7FFFFF00800002FC
:100A3800F0B585B004000F00029203930A9D41238C
:100A4800C35C202B00D09BE02033C35C012B00D17A
:100A580099E040230122C254FFF710FD06008021CF
:100A680000901923012209022000FFF7E8FE002860
:100A780000D08AE041232122E2540133113AE254A2
:100A880000236364029A6262039A62856363638DDA
:100A98009BB2FF2B0BD9FF2323857F3B3F4A009254
:100AA8005B04FF2239002000FFF74AFE18E0628D40
:100AB80092B222858023D2B2384900919B04390032
:100AC8002000FFF73DFE0BE0628D92B22285802365
:100AD800D2B2002100919B0439002000FFF730FEBC
:100AE800638D9BB2002B34D0320029002000FFF721
:100AF8007DFE00284BD12368626A12789A62636A85
:100B080001336362638D013B9BB26385238D013B97
:100B18009BB22385628D92B2002AE1D0002BDFD1EF
:100B280000962B00002280212000FFF788FE002875
:100B38002FD1638D9BB2FF2BC6D9FF2323857F3B23
:100B4800002200925B04FF3239002000FFF7F8FD15
:100B5800C6E7320029002000FFF79BFE00281AD1C3
:100B680023682022DA6121684B680D4D2B404B60C9
:100B78004123E25400232232A354023AA35400E052
:100B8800022005B0F0BD0220FBE70120F9E70120B3
:100B9800F7E70120F5E70120F3E7C04600200080D1
:100BA80000E800FEF0B585B004000F000292039340
:100BB8000A9D4123C35C202B00D09BE02033C35CFB
:100BC800012B00D199E040230122C254FFF756FCC3
:100BD8000600802100901923012209022000FFF756
:100BE8002EFE002800D08AE041232222E25401335D
:100BF800123AE25400236364029A6262039A62859D
:100C08006363638D9BB2FF2B0BD9FF2323857F3B47
:100C18003F4A00925B04FF2239002000FFF790FD55
:100C280018E0628D92B222858023D2B238490091B1
:100C38009B0439002000FFF783FD0BE0628D92B220
:100C480022858023D2B2002100919B043900200024
:100C5800FFF776FD638D9BB2002B34D0320029005C
:100C68002000FFF73DFE00284BD123685B6A626ACB
:100C78001370636A01336362238D013B9BB2238542
:100C8800628D013A92B26285628D92B2002AE1D0F9
:100C9800002BDFD100962B00002280212000FFF7D7
:100CA800CEFD00282FD1638D9BB2FF2BC6D9FF2321
:100CB80023857F3B002200925B04FF32390020002D
:100CC800FFF73EFDC6E7320029002000FFF7E1FDEF
:100CD80000281AD123682022DA6121684B680D4D5B
:100CE8002B404B604123E25400232232A354023AA2
:100CF800A35400E0022005B0F0BD0220FBE701206C
:100D0800F9E70120F7E70120F5E70120F3E7C046FE
:100D18000024008000E800FEF0B54123C35C202BCE
:100D280020D12033C35C012B1ED040240122025560
:100D38004125242343550668336893433360066886
:100D480033680A4F3B4033600668336819433160A3
:100D580001680B6813430B60202343550023035598
:100D68000020F0BD0220FCE70220FAE7FFEFFFFFBA
:100D7800F0B54123C35C202B1ED12033C35C012B6B
:100D88001CD04024012202554125242343550668DE
:100D980033689343336006683368094F3B40090260
:100DA8001943316001680B6813430B6020234355D6
:100DB800002303550020F0BD0220FCE70220FAE7DB
:100DC800FFF0FFFF10B5104A136810490B400343AA
:100DD800136080239B00984201D0002010BD0C4B6B
:100DE8001B685800C01840000A49FFF785F9013010
:100DF800054B5B695B0503D5002803D00138F7E78D
:100E08000020EBE70320E9E700700040FFF9FFFF4F
:100E18000800002040420F0070B582B0041E00D1C7
:100E28002CE20368DB0739D5C14A916838230B40A7
:100E3800D16803220A40102B26D0082B26D06368DD
:100E48008022520293427FD0A022D202934200D144
:100E580081E0B74B1A68B7490A401A601A68B64960
:100E68000A401A606368002B00D180E0FFF706FB98
:100E78000500AF4B1B689B0310D4FFF7FFFA401B1C
:100E88006428F6D90320FAE1032AD6D1A84B1B68B7
:100E98009B0303D56368002B00D1F2E123689B070D
:100EA80031D5A34A936838210B40D16803220A4000
:100EB800102B6AD0002B6BD19D4A1268520503D5BE
:100EC800E268002A00D1DEE1994842689B490A405D
:100ED800616909020A434260002B0DD103689849F1
:100EE8000B4021690B4303600368DB0A07221A40A1
:100EF800944BD340944A1360944B1868FFF772FAE6
:100F0800002800D0C1E123681B0700D481E0884B8A
:100F18009A6838231340182B73D0A369002B00D18B
:100F2800B4E0834A136E01210B431366FFF7A6FA58
:100F380005007F4B1B6E9B076BD4FFF79FFA401B86
:100F48000228F6D903209AE1794A116880235B02C6
:100F58000B43136086E7764B19688022D2020A4356
:100F68001A601968802252020A431A607AE7FFF76A
:100F780085FA05006E4B1B689B038FD5FFF77EFA39
:100F8800401B6428F6D9032079E1022A92D193E71D
:100F9800E368002B22D0664A136869490B4021692F
:100FA8000B431360116880235B000B431360FFF74A
:100FB80065FA05005E4B1B685B0506D4FFF75EFA11
:100FC800401B0228F6D9032059E159494B685B4A6E
:100FD80013406269120213434B6094E7544A136842
:100FE8005B490B401360FFF749FA0500504B1B683B
:100FF8005B0588D5FFF742FA401B0228F6D9032083
:101008003DE14B4B1B6E9B0703D5A369002B00D119
:101018003DE123685B0700D4A2E0454B9A6838237A
:101028001340202B45D0424BDB6BDB004AD4404AAF
:10103800D16B802040050143D163D36B03400193FA
:10104800019B0125434B1B68DB053DD5A368012B9C
:101058004ED0052B52D0364BDA6D01218A43DA6522
:10106800DA6D03318A43DA65A368002B50D0FFF7A5
:1010780005FA06002E4BDB6D9B076FD4FFF7FEF9D0
:10108800801B354B9842F5D90320F8E0284A136EA7
:1010980001218B431366FFF7F1F90500244B1B6E02
:1010A8009B07B6D5FFF7EAF9401B0228F6D90320BB
:1010B800E5E01F4BDB6D9B0752D5A368002B4FD192
:1010C8000120DCE00025BDE7224A116880235B008F
:1010D8000B431360FFF7D2F906001E4B1B68DB05B4
:1010E800B4D4FFF7CBF9801B0228F6D90320C6E059
:1010F8000F4AD36D01210B43D365B5E70C4BDA6D6D
:1011080004210A43DA65DA6D03390A43DA65ABE785
:10111800FFF7B4F90600064BDB6D9B071ED5FFF7FA
:10112800ADF9801B0C4B9842F5D90320A7E0C046C7
:1011380000100240FFFFFEFFFFFFFBFFFF80FFFFE5
:10114800FFC7FFFF0024F40008000020040000206F
:10115800FFFEFFFF0070004088130000012D26D01D
:10116800E369002B00D194E0514A916838220A4083
:10117800102A61D0022B20D04D4B1A684D490A40E5
:101188001A60DA6803218A43DA60DA684A490A4051
:10119800DA60FFF773F90400454B1B689B0149D5DA
:1011A800FFF76CF9001B0228F6D9032067E0404AD4
:1011B800D36B42490B40D363D2E73D4A13683D499C
:1011C8000B401360FFF75AF90500394B1B689B0168
:1011D80006D5FFF753F9401B0228F6D903204EE045
:1011E800334AD36836491940236A606A0343A06AC0
:1011F80000020343E06A0343206B03430B43D360BD
:10120800116880235B040B431360D16880235B055E
:101218000B43D360FFF732F90400254B1B689B0191
:1012280006D4FFF72BF9001B0228F6D9032026E085
:10123800002024E0002022E0012B2CD01C4BDA688F
:1012480003231340216A8B4227D170231340616A1C
:101258008B4224D1FE21C9011140A36A1B02994285
:101268001FD1F8239B031340E16A8B421BD1520F15
:101278005207236B9A4218D1002000E0012002B0E7
:1012880070BD0120FBE70120F9E70120F7E7012005
:10129800F5E70020F3E70120F1E70120EFE701205F
:1012A800EDE70120EBE70120E9E70120E7E7C04689
:1012B80000100240FFFFFFFEFFFFFEEFFFFFFFEF02
:1012C8008C80C11F10B52A4B9B6838221A4207D15F
:1012D800274B1A68D20A072313402648D84010BD66
:1012E800234B9A6838231340082B3BD0204B9A682D
:1012F80038231340102B0DD01D4B9A683823134008
:10130800202B31D01A4B9A6838231340182B26D03B
:101318000020E4E7164AD1680D3B0B40D268120959
:10132800072111400131032B0FD01248FEF7E4FECC
:101338000F4BDA68120A7F23134058430C4BD968C5
:10134800490F0131FEF7D8FEC9E70B48FEF7D4FE76
:10135800074BDA68120A7F2313405843EEE7FA2056
:10136800C001BCE70448BAE780200002B7E7C046DE
:10137800001002400024F40000127A0070B5040046
:101388000D00002800D1AAE0574B1A680723134024
:101398008B4221D323689A070ED55B0705D5534A9C
:1013A8009168E023DB010B439360504A93685049EE
:1013B8000B40A1680B4393602368DB0754D563682F
:1013C800012B20D0022B3BD0002B3FD1474A12687B
:1013D80052051CD401206AE0434A136807218B4355
:1013E8002B431360FFF74AF806003F4B1A680723A0
:1013F8001340AB42CED0FFF741F8801B3D4A9042E4
:10140800F3D9032053E0394A1268920369D5374962
:101418008A680720824313438B60FFF72FF8060082
:10142800324B9B6838221A406368DB009A421BD013
:10143800FFF724F8801B2F4B9842F1D9032036E0A0
:101448002A4A12689201E2D4012030E0032B05D029
:10145800264AD26D9207DAD4012028E0234A126E78
:101468009207D4D4012022E01F4B1A6807231340A7
:10147800AB421DD823685B0706D51C4A93681E49F2
:101488000B40E1680B439360FFF71CFF174B9A680A
:10149800120A0F2313409B00184A9A581F2313401F
:1014A800D840174B1860174B1868FEF79BFF70BDA4
:1014B8000D4A136807218B432B431360FEF7DEFFA9
:1014C8000600094B1A6807231340AB42D2D0FEF737
:1014D800D5FF801B074B9842F3D90320E7E701208B
:1014E800E5E70120E3E7C046002002400010024083
:1014F800FFF0FFFF88130000FF8FFFFFFC3000089C
:101508000800002004000020014B18687047C046FE
:101518000800002010B5FFF7F7FF064B9A68120B7A
:10152800072313409B00044A9A581F231340D840AE
:1015380010BDC046001002403C310008F0B5C64658
:1015480000B507000D0090461E003B689C682C40C3
:10155800641B63425C4144453BD0731CF5D0FEF7E5
:101568008DFF069BC01AB04201D2002EEDD13A6819
:101578005368E0218B43536082235B007A689A4268
:101588000CD080239B01BA6A9A4216D05D230122AF
:10159800FA54013B0022FA5403201BE0BB68802266
:1015A8001202934203D08022D2009342E9D13A68D2
:1015B800136840218B431360E3E73A6813680749CF
:1015C8000B4013603A68116880239B010B4313603A
:1015D800DCE7002080BCB846F0BDC046FFDFFFFF57
:1015E800F8B5CE46474680B581460E0017009846A6
:1015F80002E0434601330DD14B461D68AC683440C8
:10160800BC424AD0C021C9008E42F2D1002FF0D18D
:101618002B7BEEE7FEF732FF089BC01A404502D24B
:101628004346002BE8D14B461A685368E0218B43A8
:10163800536082235B004A4652689A420ED0802348
:101648009B014A46926A9A4219D05D230122494673
:10165800CA54013B0022CA5403201FE04B469B6832
:1016680080221202934203D08022D2009342E6D114
:101678004B461A68136840218B431360DFE74B46DB
:101688001A68136807490B4013604B461A681168BB
:1016980080239B010B431360D7E70020C0BCB946E9
:1016A800B046F8BDFFDFFFFF70B582B004000D0043
:1016B8001600C02100922B0000224901FFF790FF7D
:1016C800002818D100962B00002280212000FFF767
:1016D80035FF002816D1C02100962B000022C90032
:1016E8002000FFF77DFF00280AD0236E2022134335
:1016F8002366032004E0236E20221343236603207D
:1017080002B070BD236E2022134323660320F7E73F
:1017180010B5041E5ED0002383625D33C35C002BCA
:101728004CD05D230222E2542268136840218B4387
:101738001360E368E022D200934245D90022F021E9
:1017480009018B4205D0E021C9008B4201D000215C
:10175800A162216B002905D1E021C9008B4236D94D
:10176800022323636368A1680B4321690B43616902
:101778000B4380218900A06901400B43E1690B43B9
:10178800216A0B432168A06A03430B60618B042321
:101798000B40616A0B43616B0B43E1680B432168A3
:1017A80013434B602268D3690B490B40D361002374
:1017B80023665D330122E254002010BD5C33002211
:1017C800C25401F05BFAACE780225201B7E701236B
:1017D8002363C7E70120F0E7FFF7FFFFF0B5CE4628
:1017E80000B584B00400019191461D005C23C35CE0
:1017F800012B00D1E5E05C230122C254FEF73EFE36
:1018080006005D23E35CDFB2012B00D0C5E001993F
:10181800002900D1C2E04B46002B00D1BEE05D2379
:101828000322E25400232366A1634A46A287E28783
:1018380023644422A3520232A3522365E364802323
:101848001B02A2689A421ED023681A68520603D463
:101858001A6840210A431A60E023DB00E2689A42D2
:1018680036D96368002B02D04B46012B1DD1236863
:10187800A26B1288DA60A36B0233A363E38F013B88
:101888009BB2E38711E0226811688023DB010B43D8
:101898001360D9E7FEF7F2FD801BA84202D36B1C48
:1018A80000D086E0002D00D185E0E28F92B2002AB8
:1018B8005BD023689A689207ECD5A26B1288DA602D
:1018C800A36B0233A363E38F013B9BB2E387ECE78F
:1018D8006368002B02D04B46012B2FD1E38F9BB2BC
:1018E800012B0BD92368A26B1288DA60A36B023331
:1018F800A363E38F023B9BB2E3871FE0A36B1B78D4
:1019080022681373A36B0133A363E38F013B9BB27C
:10191800E38713E0A36B1B781373A36B0133A363F3
:10192800E38F013B9BB2E38708E0FEF7A7FD801B2E
:10193800A84201D36B1C40D1002D40D0E28F92B257
:10194800002A12D0226893689B07EED5E38F9BB2DA
:10195800012BDFD9A36B1B88D360A36B0233A3636E
:10196800E38F023B9BB2E387E8E7320029002000BF
:10197800FFF79AFE002801D020232366A368002BD6
:1019880006D103932368DA6803929B680393039B49
:10199800236E002B02D1002700E002275D230122DD
:1019A800E254013B0022E254380004B080BCB9463E
:1019B800F0BD0327F2E70327F0E70327EEE7032745
:1019C800ECE70227F0E730B5036A046A0125AC4367
:1019D80004628469EF35AC43120122430A24A3430D
:1019E8000B438261036230BD30B5036A1024A34300
:1019F80003628469036A054D2C4012032243A02424
:101A0800A343090119438261016230BDFF0FFFFF43
:101A18008368034A13400B4307210B4383607047D5
:101A28008FFFCFFF704770477047704770470000BF
:101A380010B5040003681A6992070FD5DA6892078F
:101A48000CD5032252421A610123037703689B696C
:101A58009B076AD0FFF7E8FF0023237723681A69FA
:101A6800520712D5DA6852070FD5052252421A6179
:101A78000223237723689A69C0239B001A425AD00D
:101A88002000FFF7D1FF0023237723681A69120784
:101A980010D5DA6812070DD5092252421A610423BB
:101AA80023772368DB699B074CD02000FFF7BCFF36
:101AB8000023237723681A69D20612D5DA68D2067A
:101AC8000FD5112252421A61082323772368DA6955
:101AD800C0239B001A423CD02000FFF7A5FF00233B
:101AE800237723681A69D20702D5DA68D20737D470
:101AF80023681A69120602D5DA68120637D42368F1
:101B08001A69D20502D5DA68120637D423681A6929
:101B1800520602D5DA68520636D423681A69920644
:101B280002D5DA68920636D410BDFFF77CFF200094
:101B3800FFF77BFF90E72000FFF775FF2000FFF716
:101B480074FFA0E72000FFF76EFF2000FFF76DFF8E
:101B5800AEE72000FFF767FF2000FFF766FFBEE74C
:101B6800022252421A612000FFF75CFFC0E781227F
:101B780052421A61200000F02AF9C0E7094A1A61A6
:101B8800200000F025F9C1E7412252421A612000E5
:101B9800FFF74CFFC1E7212252421A61200000F0F2
:101BA80015F9C1E7FFFEFFFF03681D4A904202D006
:101BB8001C4A904203D1702293434A681343184A3F
:101BC80090420ED0174A90420BD0174A904208D044
:101BD800164A904205D0164A904202D0154A9042C1
:101BE80003D1154A1340CA681343802293434A69B4
:101BF800134303608B68C3620B688362084B984287
:101C080008D00A4B984205D0094B984202D0094B9C
:101C1800984201D10B690363012343617047C046B1
:101C2800002C01400004004000200040004001401A
:101C38000044014000480140FFFCFFFF70B5041E4E
:101C480014D03D23C35C002B0AD03D2502236355E5
:101C5800210001C9FFF7A8FF01236355002070BDCB
:101C68003C330022C25401F03BF8EEE70120F6E7CE
:101C780030B58468034D2C401B0213430B432343A8
:101C8800836030BDFF00FFFF10B504003C23C35C38
:101C9800012B66D03C230122C25401330132C254C5
:101CA800026893683048034093600B68602B44D007
:101CB80024D8402B4BD00BD9502B0ED1CA68496879
:101CC8002068FFF780FE50212068FFF7A1FE04E09E
:101CD800202B0ED009D9302B0BD03D230122E25402
:101CE800013B0022E254002010BD002B01D0102B34
:101CF800F3D119002068FFF78BFEEEE7702B10D0A8
:101D0800802292019342E8D1CB684A6889682068AA
:101D1800FFF7AEFF226891688023DB010B439360D5
:101D2800DBE7CB684A6889682068FFF7A1FF22686B
:101D3800936877210B439360CFE7CA6849682068A6
:101D4800FFF752FE60212068FFF762FEC5E7CA6808
:101D580049682068FFF737FE40212068FFF758FEE2
:101D6800BBE70220C0E7C0468800CEFF30B53C2361
:101D7800C35C012B23D03C230122C254013301321E
:101D8800C2540268536894680E4DAA4212D0702556
:101D9800AB430D682B438025AC43896821435360CE
:101DA800036899603D230122C254013B0022C254BA
:101DB800002030BD044D2B404D682B43E7E702203F
:101DC800F7E7C046002C0140FFFF0FFF7047704740
:101DD8007047000010B50400836802691343426924
:101DE8001343802212021A4301680B68AA48034071
:101DF80013430B6080221201236A1A43A369E16925
:101E08000B431A43E3681A4321684B68A34803400D
:101E180013434B602268D36A0F218B43616A0B43DB
:101E2800D36223689E4A93420BD09E4A93426CD059
:101E38009D4A93427CD09D4A934279D00023012049
:101E4800A2E09B4B5A6D03231340022B00D1C5E03F
:101E58002FD8002B6CD0012B28D1FFF733FA636AF7
:101E6800002B00D1FDE0012B00D107E1022B00D1AE
:101E780006E1032B00D105E1042B00D104E1052B79
:101E880000D103E1062B00D102E1072B00D101E1CB
:101E9800082B00D112E1092B00D111E10A2B00D146
:101EA80010E10B2B00D1D9E00121DBE00023012058
:101EB8006AE0032B26D1636A002B00D107E1012BCE
:101EC80000D113E1022B00D112E1032B00D111E163
:101ED800042B00D110E1052B00D10FE1062B00D116
:101EE8000EE1072B00D10DE1082B00D10CE1092BE5
:101EF80000D10BE10A2B00D10AE10B2B00D1E3E062
:101F08000121E5E0002301203EE0694B5A6D0C23D6
:101F18001340082B62D006D8002B09D0042B9CD084
:101F28000023012030E00C2BC5D0002301202BE03A
:101F3800FFF7F0FA636A002B1AD0012B3AD0022B74
:101F48003AD0032B3AD0042B3AD0052B3AD0062BA3
:101F58003AD0072B3AD0082B3AD0092B3AD00A2B83
:101F68003AD00B2B01D0012103E08021490000E089
:101F78000121FEF7C1F8400063685B08C01861687A
:101F8800FEF7BAF8030000204A491A00103A8A42BC
:101F980000D9BFE099B20F2291435B08083A134079
:101FA8000B432268D3600123A38763870023A364BC
:101FB800E36410BD0221DCE70421DAE70621D8E753
:101FC8000821D6E70A21D4E70C21D2E71021D0E76F
:101FD8002021CEE74021CCE78021CAE7636A002BA5
:101FE8001AD0012B26D0022B26D0032B26D0042B67
:101FF80026D0052B26D0062B26D0072B26D0082B3B
:1020080026D0092B26D00A2B26D00B2B01D0012154
:1020180003E08021490000E001212748FEF76CF821
:10202800400063685B08C0186168FEF765F8030044
:102038000020A9E70221F0E70421EEE70621ECE7FA
:102048000821EAE70A21E8E70C21E6E71021E4E79E
:102058002021E2E74021E0E78021DEE780214900F6
:1020680000E00121FEF748F8400063685B08C018EB
:102078006168FEF741F80300002085E70221F1E7D7
:102088000421EFE70621EDE70821EBE70A21E9E75C
:102098000C21E7E71021E5E7F369FFCFF6C0FFFF62
:1020A800003801400044004000480040004C004017
:1020B80000100240EFFF00000024F4002021D1E7C7
:1020C8004021CFE78021CDE78021490000E00121B0
:1020D80080200002FEF710F8400063685B08C01813
:1020E8006168FEF709F8030000204DE70221EFE7D9
:1020F8000421EDE70621EBE70821E9E70A21E7E7F4
:102108000C21E5E71021E3E72021E1E74021DFE7A3
:102118008021DDE7012046E7F8B5CE46474680B581
:1021280006000D0017009946089B98463368DC693D
:102138002C40641B63425C41BC4213D143460133CB
:10214800F4D0FEF79BF94B46C01A404502D84346E7
:10215800002BEBD159230122F254013B0022F25407
:10216800032000E00020C0BCB946B046F8BD30B539
:1021780083B004000023C365FEF780F905002368D7
:102188001B681B070CD423681B685B0716D45923EC
:102198000122E254013B0022E254002003B030BD8A
:1021A8008021FA239B00009303000022890320006A
:1021B800FFF7B2FF0028E6D00320EFE78021FA23DB
:1021C8009B0000932B000022C9032000FFF7A4FF07
:1021D8000028DCD00320E1E710B5041E29D05923DC
:1021E800C35C002B1FD059230222E25422681368D3
:1021F80001218B4313602000FFF7ECFD012811D06B
:10220800226853680C490B405360226893682A215E
:102218008B4393602268136829390B4313602000AD
:10222800FFF7A5FF10BD58330022C25400F076FD19
:10223800D9E70120F6E7C046FFBFFFFF70B584B0BD
:10224800040002AA134B03CB03C26A46124B03CB0A
:1022580003C2636C002B04D10133A387638704B0E6
:1022680070BD226895686D0E07231D409268520F55
:10227800134002AEF05CC0006A46D15CFDF7C6FFB1
:10228800A087705DC0006B46595DFDF7BFFF608792
:10229800E5E7C046E8300008F030000870B558237C
:1022A800C35C012B14D0582501234355592602221B
:1022B800825501680A680C689C430C6005490A400D
:1022C800002141640468226083554155002070BD97
:1022D8000220FCE7FFFFFFDFF0B5C64600B50400AB
:1022E8000B005822825C012A1DD0582601258555ED
:1022F80059270222C2550268116888461168A94305
:10230800116002689168C900C90819439160FFF714
:1023180095FF236842461A60E5550023A35500201F
:1023280080BCB846F0BD0220FAE70000F0B5C6460A
:1023380000B504000B005822825C012A1ED05826E2
:102348000125855559270222C25502681168884619
:102358001168A9431160026891680948014019434E
:1023680091602000FFF76AFF236842461A60E5552E
:102378000023A355002080BCB846F0BD0220FAE730
:10238800FFFFFFF1C9000A507047CB001B589A188D
:10239800642A03DC002A02DA002200E06422C90071
:1023A8000A50704770B50500002405E0002221009E
:1023B8002800FFF7E7FF0134172CF7DD70BD48311F
:1023C80089000B58DB001B58934201DC0020704742
:1023D8000120FCE710B5084A084BDA62084B1B6875
:1023E8001968CA621B6800225A62A02001321021B3
:1023F800C005FEF789F910BDEE0200000004004098
:10240800F407002070B50024002509E01948026887
:102418000C302100FFF7D3FFA0400543EDB2013493
:10242800072CF3DD134B1D72002400250AE0114828
:102438000268210008310C30FFF7C1FFA0400543B6
:10244800EDB20134072CF2DD0A4B5D720024002541
:102458000AE008480268210010310C30FFF7AFFF8E
:10246800A0400543EDB20134072CF2DD014B9D720B
:1024780070BDC0466004002010B5FFF7C3FF114BC4
:102488001868642303221049FFF7A8F9A024E4057B
:10249800012208212000FEF737F900220821200038
:1024A800FEF732F9002210212000FEF72DF9074A25
:1024B800074BDA62074B1B681968CA621B6800225F
:1024C8005A6210BDF007002068040020A8610000CF
:1024D80000040040F407002002010B4B9B188D33C9
:1024E800FF331B6859188023DB00994203DA00295F
:1024F80002DA064900E000210001034B18188D306C
:10250800FF3001607047C04660040020FF030000F0
:10251800F0B5C64600B580462A25454300240AE0A2
:102528008022D2009446634414E08022D20094466C
:10253800604411E001341F2C29DC2201154B9B1843
:102548008D33FF331868144B9842F3D0431B281A75
:10255800002BE5DB0028E8DB834200DC18002200C2
:10256800193212010B4B9B1859688142E2DB094F63
:102578002301FB189133FF331E687043FDF746FEB5
:10258800321A38000C304146FFF7FFFED2E780BC14
:10259800B846F0BD600400200104000010B50648EC
:1025A800FFF700FF002403E02000FFF7B1FF01342C
:1025B800172CF9DD10BDC0466C04002010B5184B6F
:1025C8001B685A2B0BD0164B1B79002B13D0012BF1
:1025D8001FD0134B01221A71FFF7FCFE18E00121EE
:1025E8000020FFF779FF032149420120FFF774FF1C
:1025F800FFF7D4FFE7E70A4A012313711368013391
:102608001360642B02DD130000221A60FFF734FF09
:1026180010BD034B00221A71FFF7DCFEF8E7C04635
:102628006004002010B500F0CDFA00F0CBFA10BD20
:1026380010B5002800D110BDFFF7F4FF0120FAE71C
:10264800014B18607047C046F807002010B582B0EB
:102658000C0013000100074A106801225242009240
:102668002200FEF7E5F9002802D1013002B010BDC2
:102678000020FBE7F807002010B582B00C0013001B
:102688000100074A10680122524200922200FEF718
:1026980089FA002802D1013002B010BD0020FBE702
:1026A800F807002030B583B001AC102323709033B5
:1026B800637002222100D420FFF7C8FF01250540DE
:1026C800112323706F33637002222100D420FFF797
:1026D800BDFF284003B030BD10B582B00F236A4655
:1026E800D37101226B46D91DD420FFF7AFFF012417
:1026F800044060426041C0B2FFF79AFF01226B4676
:10270800D91DD420FFF7B8FF044060426041C0B231
:10271800FFF78EFF6B46D87969380300581E83414E
:10272800D8B2FFF785FF200002B010BD10B5FFF743
:10273800D3FF43425841C0B2FFF77AFFFFF7B2FF19
:1027480043425841C0B2FFF773FF10BDF0B5DE46F3
:1027580057464E464546E0B583B005006B465C1CBF
:102768002823237001222100D420FFF76FFF0126C0
:1027780006402223237001222100D420FFF766FFA0
:10278800064007236B44994601221900D520FFF71C
:1027980073FF06402323237001222100D420FFF772
:1027A80055FF064006236B449A4601221900D5209E
:1027B800FFF762FF30400700242323700122210025
:1027C800D420FFF743FF384006006B465F1D012207
:1027D8003900D520FFF750FF06402523237001223A
:1027E8002100D420FFF732FF064001AB98460122B2
:1027F8001900D520FFF740FF064026232370012249
:102808002100D420FFF722FF304083466B46DE1CB0
:1028180001223100D520FFF72FFF5B4603409B467E
:102828002723237001222100D420FFF70FFF5B46E6
:1028380003409B466B469C1C01222100D520FFF7D4
:102848001BFF5B46184053461B781B021BB24A46C7
:10285800127813432B8043461B781B021BB23A782D
:1028680013436B8023781B021BB232781343AB806F
:1028780003B0F0BCBB46B246A946A046F0BD000076
:1028880070B584B005006B46D91D28230B70012252
:10289800D420FFF7DBFE0126064002AC0622210009
:1028A800D520FFF7E9FE304001AB0B4A1A80637868
:1028B8001B021BB2227813432B80E3781B021BB246
:1028C800A27813436B8063791B021BB222791343EE
:1028D800AB8004B070BDC046FF7F0000F0B5C646AF
:1028E80000B588B01422002103A800F017FB284B7C
:1028F8005A6B042188460A435A635A6B0A4000926D
:10290800009A5A6B01252A435A635A6B2A4001924E
:10291800019A596B0222114359635B6B1A40029268
:10292800029B8C246400A026F605002221003000BA
:10293800FDF7EAFE174F002204213800FDF7E4FEF8
:102948000394049500240594069403A93000FDF728
:1029580011FE032303930493059403A93800FDF79C
:1029680009FE4346039304950594069403A9380089
:10297800FDF700FE80235B0103930494059403A9EB
:102988003000FDF7F7FD08B080BCB846F0BDC04682
:10299800001002400004005010B50D4C0D4B236090
:1029A8000D4B63600023A3600122E2602361636131
:1029B800A361E36123622000FDF7D4FF002120001A
:1029C800FEF7AAF900212000FEF7D2F910BDC04693
:1029D800FC07002000540040FFFD304010B51048AF
:1029E800104B036082235B00436080231B028360DB
:1029F800E023DB00C360002303614361802292006F
:102A08008261F13AFF3AC2617032026243628362C4
:102A1800793AC26203634363FEF77AFE10BDC0468B
:102A2800480800200030014010B5104C104B2360BE
:102A3800E1235B0263600023A360E36023610C224F
:102A48006261A361E3612362636223642000FFF78C
:102A5800C3FB00212000FFF73FFC00212000FFF707
:102A680065FC2000FFF71AFC10BDC046EC080020EA
:102A78000038014030B589B01022002104A800F0C8
:102A88004DFA0C22002101A800F048FA0E4C0F4B19
:102A98002360012363600025A560FA239B00E3609F
:102AA8002561A5612000FFF7C9F880235B01049325
:102AB80004A92000FFF7E8F80195039501A9200073
:102AC800FFF754F909B030BDAC08002000040040FD
:102AD80010B5FFF773FD10BD30B593B03422002157
:102AE80005A800F01BFA1022002101A800F016FA30
:102AF80080208000FEF766F90225059580235B009B
:102B0800089300240994C03B0A930C950D950E94E4
:102B1800383B0F9380239B02109380239B051193CE
:102B280005A8FEF779F90723019302950394049405
:102B3800022101A8FEF722FC13B030BD10B584B005
:102B4800FDF77CFCFFF7C8FFFFF7C8FEFFF724FF7F
:102B5800FFF744FFFFF768FFFFF78CFF1648FFF702
:102B68006FFDFFF7E3FD0622002102A800F0D6F969
:102B780006220021684600F0D1F902A8FFF7E6FD19
:102B8800062202A9684600F077F9002402E06420D2
:102B9800FDF77AFC02A8FFF7D9FD02A8FFF770FE3F
:102BA800013406492000FDF72DFB0029EFD104313F
:102BB8000348FDF7AFFDEAE7FC07002010270000F7
:102BC8000004005010B58021A02001224900C00552
:102BD800FDF79AFD10BD000000B583B00B4B196CD2
:102BE800012211431964196C0A400092009ADA6BA9
:102BF800802149050A43DA63DB6B0B400193019B93
:102C0800C020C000FDF752FC03B000BD0010024018
:102C180010B588B004001422002103A800F07EF942
:102C28002268134B9A4201D008B010BD114C626B58
:102C380002231A436263626B13400193019BC02312
:102C48000393AE3B0493113B05930023069306338D
:102C5800079303A90848FDF78DFCE26B80218903DF
:102C68000A43E263E36B0B400293029BDCE7C04636
:102C780000540040001002400004005010B588B015
:102C880004001422002103A800F048F92268124B1E
:102C98009A4201D008B010BD104B196C8020400139
:102CA800014319641A6C02400192019A596B01227E
:102CB800114359635B6B1A400292029B06230393EC
:102CC800043B04930023059306930793A02003A9CC
:102CD800C005FDF74FFCDDE7003001400010024061
:102CE80000B583B002680B4B9A4201D003B000BD17
:102CF800094AD16B02231943D163D26B1340019364
:102D0800019B002200211020FDF7DCFB1020FDF7BD
:102D180009FCEBE7000400400010024030B589B020
:102D280004001422002103A800F0F8F822681C4BC4
:102D38009A4201D009B030BD1A4B196C8020C001ED
:102D4800014319641A6C02400092009A596B0122DF
:102D580011435963596B114001910199596B02252F
:102D6800294359635B6B2B400293029BC023DB0012
:102D7800039304950024059406940792A02003A9C0
:102D8800C005FDF7F7FB0823039304950594069403
:102D9800043B079303A90448FDF7ECFBCAE7C046C8
:102DA8000038014000100240000400507047FEE760
:102DB8007047704710B5FDF755FB10BD10B50348B7
:102DC800FEF736FEFFF784FE10BDC046AC080020B3
:102DD800024B802212059A607047C04600ED00E061
:102DE8000D488546002103E00C4B5B5843500431E5
:102DF8000B480C4B42189A42F6D30B4A02E00023C8
:102E080013600432094B9A42F9D3FFF7E1FF00F04F
:102E180011F8FFF793FEFEE7009000206C310008E0
:102E2800000000203C04002040040020700900201D
:102E3800FEE7000070B50C4D0C4E761BB61005D0A1
:102E4800002408CD01349847A642FAD100F03CF995
:102E5800074D084E761BB61005D0002408CD013466
:102E68009847A642FAD170BD603100086031000869
:102E78006031000868310008F0B5C64600B50F2A71
:102E880041D903270D003E0005430C0003002E40E6
:102E98002F423DD11500103D2D09AC462D01A84605
:102EA8008044256867681D605F60A568E7689D6065
:102EB800DF6010341F0010334745F2D165460F23F9
:102EC8000C2401352D01491913404519144222D00B
:102ED8008C59AC5104369C1B032CF9D80324043BB1
:102EE8009B0801339B002240ED18C918561E002A82
:102EF80006D00023CC5C1A00EC5401339642F9D179
:102F080080BCB846F0BD0500561E002AF1D1F7E78F
:102F18000500561EEDE71A00F6E7C046F0B50500B5
:102F280083074AD0541E002A44D003000322CEB29D
:102F380002E00135013C3DD301332E701342F8D134
:102F4800032C2FD9FF220A40150215432A041543E2
:102F58000F2C35D92700103F3F093E01B4461E000B
:102F68001A0010366644156055609560D5601032B9
:102F7800B242F8D10F260C2201373F012640DB1957
:102F88003700224217D03E1FB608B400A4461A00E4
:102F98001C1D644420C2A242FCD103240136B600A1
:102FA8009B193C40002C05D0C9B21C19197001337B
:102FB8009C42FBD1F0BD3400F4E714000300BFE7E6
:102FC8002700E0E7034B10B5002B02D0024800F0C1
:102FD80005F810BD00000000F52F000810B501002D
:102FE80000230022002000F019F810BD70B5074D2D
:102FF800074C641BA41005D0013CA300EB5898476C
:10300800002CF9D100F066F870BDC04668310008A0
:103018006C3100087047C0467047C046F0B5D646C8
:103028004F464646C0B5264F82B0060038689246DD
:1030380098468946FFF7EEFF224B1B680193A423AD
:10304800019A5B00D558002D2ED06C681F2C30DCFF
:10305800002E0FD1631C6B604B460234A400386805
:103068006351FFF7D9FF002002B0E0BCBA46B14671
:10307800A846F0BD882251462800A300EB189950B5
:10308800873AA2408930FF300168114301608421EA
:10309800404649005850022EDCD12B008D33FF33B7
:1030A80019680A431A60D5E715004D35FF35D55024
:1030B800CBE73868FFF7B0FF01204042D4E7C046AD
:1030C800380400205C310008F8B5C046F8BC08BCDC
:1030D8009E467047F8B5C046F8BC08BC9E46704787
:1030E80001010103070100000804020408010101AD
:1030F80000000000000000000000000000000000C8
:1031080000000000000000000000000000000000B7
:1031180000000000010000000200000003000000A1
:10312800040000000600000007000000080000007E
:10313800090000000000000000000000000000007E
:103148000000000001000000020000000300000071
:0831580004000000100000203B
:08316000CD2F0008E10000087A
:04316800B9000008A2
:10316C0001000000040000000024F4000000000036
:10317C0000000000FC02002064030020CC030020AF
:10318C000000000000000000000000000000000033
:10319C000000000000000000000000000000000023
:1031AC000000000000000000000000000000000013
:1031BC000000000000000000000000000000000003
:1031CC0000000000000000000000000000000000F3
:1031DC0000000000000000000000000000000000E3
:1031EC0000000000000000000000000000000000D3
:1031FC0000000000000000000000000000000000C3
:10320C0000000000000000000000000000000000B2
:10321C0000000000000000000100000000000000A1
:10322C000E33CDAB34126DE6ECDE05000B00000066
:10323C000000000000000000000000000000000082
:10324C000000000000000000000000000000000072
:10325C000000000000000000000000000000000062
:10326C000000000000000000000000000000000052
:0C359C0000000000000000004C090020AE
:0400000508002DE9D9
:00000001FF
