:020000040800F2
:10000000009000206D630008816200088362000890
:1000100000000000000000000000000000000000E0
:1000200000000000000000000000000085620008E1
:1000300000000000000000008762000889620008DC
:10004000BD63000800000000BD630008BD63000838
:10005000BD630008BD630008BD630008BD63000800
:1000600000000000BD630008BD630008BD63000818
:10007000BD630008BD630008BD6300080000000008
:1000800091620008BD630008BD630008BD630008FD
:10009000BD630008BD630008BD630008BD630008C0
:1000A000BD630008BD630008BD630008BD630008B0
:0800B000BD630008BD630008F8
:1000B80010B5064C2378002B07D1054B002B02D036
:1000C800044800E000BF0123237010BDC8090020C8
:1000D8000000000024CE0008044B10B5002B03D00C
:1000E8000349044800E000BF10BDC04600000000FE
:1000F800CC09002024CE0008002243088B4274D388
:1001080003098B425FD3030A8B4244D3030B8B4210
:1001180028D3030C8B420DD3FF22090212BA030C19
:100128008B4202D31212090265D0030B8B4219D3FA
:1001380000E0090AC30B8B4201D3CB03C01A52411A
:10014800830B8B4201D38B03C01A5241430B8B4262
:1001580001D34B03C01A5241030B8B4201D30B034B
:10016800C01A5241C30A8B4201D3CB02C01A524172
:10017800830A8B4201D38B02C01A5241430A8B4235
:1001880001D34B02C01A5241030A8B4201D30B021E
:10019800C01A5241CDD2C3098B4201D3CB01C01A38
:1001A800524183098B4201D38B01C01A5241430942
:1001B8008B4201D34B01C01A524103098B4201D330
:1001C8000B01C01A5241C3088B4201D3CB00C01A9D
:1001D800524183088B4201D38B00C01A5241430815
:1001E8008B4201D34B00C01A5241411A00D201463A
:1001F800524110467047FFE701B5002000F0F0F8C3
:1002080002BDC0460029F7D076E7704703460B4386
:100218007FD4002243088B4274D303098B425FD3F7
:10022800030A8B4244D3030B8B4228D3030C8B4223
:100238000DD3FF22090212BA030C8B4202D3121209
:10024800090265D0030B8B4219D300E0090AC30BDE
:100258008B4201D3CB03C01A5241830B8B4201D38B
:100268008B03C01A5241430B8B4201D34B03C01A74
:100278005241030B8B4201D30B03C01A5241C30AEC
:100288008B4201D3CB02C01A5241830A8B4201D35D
:100298008B02C01A5241430A8B4201D34B02C01A47
:1002A8005241030A8B4201D30B02C01A5241CDD2EC
:1002B800C3098B4201D3CB01C01A524183098B4237
:1002C80001D38B01C01A524143098B4201D34B0120
:1002D800C01A524103098B4201D30B01C01A524183
:1002E800C3088B4201D3CB00C01A524183088B420A
:1002F80001D38B00C01A524143088B4201D34B00F3
:10030800C01A5241411A00D2014652411046704764
:100318005DE0CA0F00D04942031000D34042534069
:1003280000229C4603098B422DD3030A8B4212D329
:10033800FC22890112BA030A8B420CD3890192115B
:100348008B4208D3890192118B4204D389013AD098
:10035800921100E08909C3098B4201D3CB01C01A6D
:10036800524183098B4201D38B01C01A5241430980
:100378008B4201D34B01C01A524103098B4201D36E
:100388000B01C01A5241C3088B4201D3CB00C01ADB
:10039800524183088B4201D38B00C01A5241D9D2F3
:1003A80043088B4201D34B00C01A5241411A00D274
:1003B8000146634652415B10104601D34042002B70
:1003C80000D54942704763465B1000D3404201B5EF
:1003D800002000F005F802BD0029F8D016E77047A4
:1003E8007047C0468446081C6146FFE71FB500F009
:1003F8004FFB002801D40021C8421FBD10B500F0F2
:10040800D3FA4042013010BD10B500F041FB00287E
:1004180001DB002010BD012010BDC04610B500F062
:1004280037FB002801DD002010BD012010BDC046AB
:1004380010B500F0E1FA002801DC002010BD012011
:1004480010BDC04610B500F0D7FA002801DA002028
:1004580010BD012010BDC046F0B54646D6464F46F1
:100468004D024202C0B5520A6E0A4700B0463F0E1E
:100478004E00C40FD00094463B008246360EC90F8A
:10048800AD098C426DD0B81B814600284DDD002E89
:1004980000D188E0FF2F5AD08023DB041D434B4650
:1004A80001221B2B0ADC2B004A464946D340202256
:1004B800521A95402A00551EAA411A4353469A1AC1
:1004C800530100D4B9E092019609300001F064FDAF
:1004D80005388640874200DDD4E03300C71B202062
:1004E8000137FB40C71BBE403200561EB2410027F1
:1004F8001A43530704D00F231340042B00D00432AF
:10050800530100D49CE07B1CFE2F00D19AE092019D
:10051800520A9446DBB2D8056346E40718432043E1
:10052800E0BCBA46B146A846F0BD002849D0F31B46
:10053800002F00D0B6E05246002A60D0013B002BC5
:1005480000D1FCE0FF2E00D0B4E00C004246002AA7
:1005580078D08020C00310434202530A9C46FF23F0
:10056800D9E7B91B002971DD002E3FD0FF2FEED04F
:100578008023DB041D4301221B2907DC2A002023DA
:10058800CA40591A8D406B1E9D412A43524453015B
:1005980053D50137FF2F55D001237B49134052080B
:1005A8000A401A43A5E7002D2CD001235B429C4644
:1005B800E1444B46002B00D1ADE0FF2F00D06EE7A1
:1005C800C5E7FE207E1C304260D1002F00D093E0AA
:1005D8005246002A00D1B6E0002D9CD0521B500193
:1005E80000D4C3E053460C00EA1A82E7002D09D074
:1005F8000139002900D18BE0FF2FBCD1A7E70C00FF
:1006080042463700FF2FA2D05202530A9C46FBB243
:1006180081E7FE210137394265D1002B7ED10028C0
:1006280000D1AAE0002D00D175E72A005244002726
:10063800530102D5554B01371A40530700D05AE7EA
:10064800D208DFE70022FF23944664E70029E0D0C0
:10065800F31B002F3ED0FF2E00D177E78022010048
:10066800D20411438A4601221B2B08DC5246202162
:100678005046DA40CB1A9840431E9841024337004F
:10068800521984E7414A3F1A324032E753465E1B0B
:1006980073012DD4002E00D017E700220024002378
:1006A800944638E7FF2E00D14FE780225046D20407
:1006B8001043824601221B2B08DC52462024504658
:1006C800DA40E31A9840431E984102430C00370071
:1006D800AA1AF5E6002893D0013B002B4FD0FF2E35
:1006E800C1D1424633E7FF2FACD055446A08A4E78E
:1006F80053460C00EE1AE8E65346002B28D1002D8D
:1007080000D022E78023DB039C460024FF2302E776
:100718002A0052443BE753465A1BD1E6002800D131
:1007280014E7002D00D112E78023DB031A4200D121
:100738000DE74146194200D009E7424607E70C0099
:100748003700AA1ABCE6002D13D00C00C446E2E616
:10075800002D00D1FBE68023DB031A4200D1F6E628
:100768004046184200D0F2E60C00EFE6002A00D01E
:1007780063E7002200249446CDE6C446CBE62A006F
:100788003700524403E7C046FFFFFF7DFFFFFFFB32
:10079800F0B54F464646D6464502C0B547000C1C44
:1007A8006D0A3F0EC60F002F66D0FF2F6CD00023B6
:1007B800EA00802599469A46ED0415437F3F60027A
:1007C8006100430A9846090EE40F002948D0FF2922
:1007D80010D08022D800D2040243904600207F39EE
:1007E8004A4633007F1A02436C4992008A58634094
:1007F800DBB29746002B6DD10220FF3F33E0002388
:1008080098462600454682465346022B00D17FE093
:10081800032B00D194E0012B17D038007F3000283B
:100828005FDD6B0704D00F232B40042B00D0043569
:100838002B0103D538005A4B80301D40FE2867DC59
:10084800AD016D0AC0B202E01E0000200025C005FF
:100858002843F6073043E0BCBA46B146A846F0BD87
:10086800002B2BD101204A4633004E490243920007
:100878008A586340DBB29746002D13D1042399466A
:10088800033B00279A469AE7002D05D1082399468D
:10089800063BFF279A4692E70C239946093BFF2718
:1008A8009A468CE7280001F077FB7627431F9D4086
:1008B80000237F4299469A463F1A80E7180001F0C4
:1008C8006BFB4246431F76219A404942091A9046DB
:1008D800002085E7FF21032082E71E00FF20002576
:1008E800B5E701231B1A1B2BAFDC9E372900BD403F
:1008F800D9406A1E95410D436B0704D00F232B4046
:10090800042B00D004356B0144D5012000259EE757
:10091800FF2000259BE780250026FF20ED0396E7B2
:10092800002398468020C003054209D0434603426D
:1009380006D1454605436D022600FF206D0A86E76D
:100948008020C00305436D02FF206D0A7FE7414602
:100958006A014801824219D21B210025013F012664
:1009680014006D005200002C01DB904201D8121ACD
:10097800354301390029F3D1501E824138007F30B8
:100988001E001543002800DD4BE7AAE71A210125C0
:10099800121AE4E7AD0100206D0A58E748CE0008B6
:1009A800FFFFFFF788CE000870B542004E024C00EA
:1009B80045026D0A120EC30F760A240EC90FFF2ACC
:1009C8000FD0FF2C11D00120A24200D070BDB5423B
:1009D800FCD18B420DD0002AF8D12800451EA84131
:1009E800F4E70120002DF1D1EBE70120002EEDD135
:1009F800E9E70020EAE7C046F0B5420046024D02AA
:100A08004C00C30F760A120E6D0A240EC80FFF2A77
:100A18001FD0FF2C10D0002A1FD171427141002C29
:100A280001D1002D1ED000290ED183421ED00221F3
:100A3800581E08400138F0BD002D26D1002AF4D1F7
:100A4800714271410029F0D00028F4D101204042C0
:100A5800F1E7002E19D1FF2CEED0002CE5D1002DA6
:100A6800E3D1E4E70020002EE5D0E0E7A24205DC70
:100A7800EADBAE4202D8E7D30020DCE7414241413D
:100A88004842022108400138D5E702204042D2E717
:100A9800F0B5420046024D024C00C30F760A120E12
:100AA8006D0A240EC80FFF2A0DD0FF2C0FD0002A84
:100AB80023D171427141002C0FD1002D0DD100209E
:100AC800002E14D00DE0002E10D1FF2C15D1002DD2
:100AD8000CD1002A03D171427141002908D1834207
:100AE80010D00221581E0840013800E00220F0BD55
:100AF8000028FCD101204042F9E7002CEFD1002D5D
:100B0800EDD1EEE7A24205DCF2DBAE4202D8EFD32C
:100B18000020ECE7414241414842022108400138A7
:100B2800E5E7C04670B5002813D0C317C5185D4067
:100B3800C40F280001F030FA9E2301001B1A962BDF
:100B48000FDC082801DD08398D406D026D0AD8B226
:100B580002E0002400200025C0052843E4072043C4
:100B680070BD992B0BDD05222E00121AD64002000B
:100B78001B3295402800451EA8413500054305292C
:100B880001DD4A1F95402A00084E3240680709D007
:100B98000F202840042805D00432500102D59F2395
:100BA80032405B1A9201550AD8B2D5E7FFFFFFFB26
:100BB800F0B54F46D64646460D0001001800C0B5B0
:100BC80017002B035A0A4B0F1343CA00914602031E
:100BD8006E004100520AEC0F7D0F1543760D490D4A
:100BE800C00F8246AC46FF00721A844200D198E0DA
:100BF800002A00DC81E0002900D1B6E0C9498E4214
:100C080000D172E180212800090408438446382A6B
:100C180000DD5EE11F2A00DDEEE120203900654697
:100C2800801A8740D14085400D4339004F1EB94195
:100C38006746D7402943DB1B4A46551AA9458941CF
:100C480049425B1A984643461B0200D4CCE043460F
:100C58005B025B0A98464346002B00D12CE14046D4
:100C680001F09AF901000839202228004346521A57
:100C78008B40D0408D4003438E4200DD17E18E1B30
:100C8800721C1F2A00DDA7E1202118002E00891AF6
:100C98008D408840D640D340691E8D4130439846E8
:100CA800002605436B0709D00F232B40042B05D0E2
:100CB8002B1DAB42AD416D42A8441D0043461B02AB
:100CC80000D494E0974B721C9A4200D19DE04146B3
:100CD800954BED0819400B00520549075B02294363
:100CE8001B0B520D12051343E40723430800190098
:100CF800E0BCBA46B146A846F0BD002A43D08A1BDC
:100D0800002E00D02AE14C461C4300D1D1E1541EEC
:100D1800012A00D11FE2834DAA4200D172E22200CB
:100D280023E1002A00DC98E0002942D07D498E4268
:100D380000D1DAE080212800090408438446382AD3
:100D480000DD29E11F2A00DC87E111006546203912
:100D5800CD40202A04D040206146821A91400F439A
:100D680039004F1EB9410D431BE12900394300D119
:100D7800B5E0511E012A00D1ABE16A48824200D198
:100D8800B2E10A0043E76949751C0D4200D0CFE083
:100D9800002E00D093E14946194300D1D1E16146C4
:100DA800394300D0E3E149465807C9080143DB0845
:100DB80026E02900394300D191E0511E012A05D0CF
:100DC8005848824200D18FE10A00B8E73D004D44FF
:100DD8004D45894163449846494288444346022622
:100DE8001B0200D5EBE0013E6B0700D05CE74346F1
:100DF800E9085A0711433200DB084A48824221D0E9
:100E08001B0352051B0B520D6CE70023002169E7F9
:100E18002A003A4369D04A465807D108DA0880239D
:100E28001B0308431A4207D02900ED081D4203D1CD
:100E38002A00FF0848073843430FC1005B07C90869
:100E4800194313000A001A4300D113E28022120347
:100E580013431B03334A1B0B44E7002A4BD08A1B5E
:100E6800002E00D1E7E02F48814200D195E1802093
:100E780000040343382A00DD43E11F2A00DDDBE1DB
:100E880020201D004E46801A8540D64035434E46E8
:100E980086403000D340461EB0419C440543ED19BE
:100EA800BD429B415B42634498460E007FE01E4A68
:100EB800761A13409846F5E6280001F06DF801000F
:100EC80018311F2900DCCFE62B00083883400025A5
:100ED800D2E662463A4311004F1EB941ACE6494694
:100EE8005807C9080143DB0887E749465A07C90874
:100EF8001143DB08A6E70D49701C084200D0BBE08F
:100F0800002E00D014E14946194300D175E12900AB
:100F1800394300D07EE149465807C9080143DB0838
:100F28006EE7C046FF070000FFFF7FFFFE070000D7
:100F38004946CD1B6146581AA94589414942884608
:100F480001004046091A8846090200D5A6E0414634
:100F5800294300D07FE60023002451E7C74CA14273
:100F680000D1C7E0802424042343382A54DC1F2AF4
:100F780000DDCCE020244846A41A1D004E46A040BF
:100F8800D640A5400400D34062463543661EB441AE
:100F9800D31A9C46254344E062463A4315006F1E27
:100FA800BD414D444D458941494288469844434690
:100FB8001B0200D418E7B14B01369E4249D0424685
:100FC800AF4B01211A4013006A080D401543D90799
:100FD8005B0898460D4365E618001F3EF040202A3E
:100FE80003D040218A1A93401D43691E8D41002376
:100FF800002698460543F7E6110065462039CD409E
:10100800202A04D040206146821A91400F433900BB
:101018004F1EB94129430FE64A4613431D006B1E74
:101028009D417D1BAF429B4162465B42D31A984665
:1010380054460E0007E64846184300D1B3E0501E58
:10104800012A00D10DE18D4DAA4200D1A5E0020090
:1010580010E732000023002144E620213800891AD5
:1010680065468F408D40D040791E8F4105433D43F2
:101078006746D740DB1994E7804A904200D1ECE0FC
:101088003900494449459241634452429B18DD075F
:1010980049085B08984606000D43A5E64A46BD1A6E
:1010A800AF42894162464942D31A5B1A9846544670
:1010B800D1E56C07F9082143EB0804009DE64A4690
:1010C8001A4375D16146394314D1802300241B0388
:1010D800BCE64A46D51BA9458941624649429B1A46
:1010E8005B1A98460126AEE54A46D1085A071143CD
:1010F800DB08A7E66346F9085A0754461143DB089C
:10110800A0E64A4613431D006B1E9D41C7E6140026
:101118001E00203CE640202A05D04024A21A934015
:101128004A461A4391464D466B1E9D41354378E722
:101138004A461A4300D06BE66B07F9081943EB08D7
:1011480080E66146394354D06346F9085C07214379
:10115800DB08040054E64A46BD1AAF42894162469C
:101168004942D31A5B1A9846040001266BE54A46A1
:10117800D51BA9458941624649429A1A521A904696
:10118800120232D54A46BD1AAF42894162464942E7
:10119800D31A5B1A9846040084E56346F9085A078F
:1011A8001143DB084EE6F90868070143EB0824E61B
:1011B80062463A4300D198E64A46D1085A07114395
:1011C800DA0880231B031A4208D06046C5081D426E
:1011D80004D154462A00F908430719434B0FC900A4
:1011E8005B07C908194313002CE64146294300D080
:1011F800FAE500230A00002402E66B07F908194300
:10120800EB08FDE56346F9085B07194363460400EC
:10121800DB0817E63D004D4463444D458941984637
:101228004942884443461B0200D4DDE54246144B3C
:1012380001261A409046D7E510001E002038C64007
:10124800202A05D04020821A93404A461A439146E4
:101258004D466B1E9D41354321E6020000230021C7
:1012680040E54A46D519BD428941634498464942FA
:101278008844B3E50021014A0B0033E5FF0700006D
:10128800FFFF7FFFF0B557464E464546DE46E0B5C0
:10129800814605000C03480092461F0085B0240BC8
:1012A800400DCE0F002859D0874B984200D198E0C6
:1012B8006B0FE4001C4380231B0423439846834B95
:1012C800ED009B4600239946834400933C037B0032
:1012D8005046240B5B0DFF0F002B67D07A4A9342D0
:1012E80018D07A49420F8C46E400594614438022AC
:1012F80063441204CB1A14439B46C20000203300F7
:101308007B409A464B460F2B00D9EFE070499B0073
:10131800CB589F466F4B52469C462243E344002AD3
:1013280000D095E04946022319438946002402204B
:10133800E5E700230024002552461B052343D20776
:1013480013432800190005B0F0BCBB46B246A946B5
:10135800A046F0BD002400255B4BEDE74B46234338
:10136800984600D189E0002C00D1E0E1200000F08F
:1013780013FE010002000B391D235B1A49461000B9
:10138800D940083884400B004D4623439846854091
:1013980051483C03831A9B460023994600937B00DF
:1013A8005046240B5B0DFF0F002B97D1524622436A
:1013B80055D0002C00D1CAE1200000F0EDFD02005C
:1013C8000B3A1D2301009B1A52460839DA408C401B
:1013D800144352468A40414B58449B46834400205C
:1013E8008DE74B462343984640D108239946063B50
:1013F80000258346009369E7B246009B022BA9D0DB
:10140800032B00D111E2012B93D0354A5A44002A0C
:1014180000DC3CE16B0700D0A7E1ED084346DB01A7
:1014280006D542462F4B1A4090468022D2005A4495
:101438002D4B9A428EDC4346520558075C02054301
:10144800240B530D78E7BA46A04615000090D4E760
:101458004A4603231A439146032052464FE749461A
:101468000123194389460024012048E70C239946A3
:10147800093BA0468346009328E7042399460023A6
:101488009B4601330025009320E7002380249A46D9
:1014980000250D4B24034FE7802341461B031942C7
:1014A80008D01C4206D11C432403BA461500064B3B
:1014B800240B41E78024434624031C432403B246FB
:1014C800014B240B38E7C046FF07000001FCFFFF73
:1014D800C8CE000801F8FFFF0DFCFFFFF303000072
:1014E800FF030000FFFFFFFEFE070000444500D297
:1014F80016E100D111E101235B429C462E004046D3
:101508000025E3442302140E1C431B0C99462304B4
:101518001F0C1202494600920197FEF773FE020063
:101528007A430B04310C804619438A420BD90123B4
:101538005B429C460919E0448C4204D88A4202D98D
:10154800831E98460919881A4946FEF75BFE090466
:101558008C4631046646019A090C42430300314324
:101568008A4204D90919013B8C4200D811E1891A31
:101578004246009E12041A43330C1F00100C90467A
:10158800029313043204160C32001B0C5A430396C0
:101598007B4346437843170CBC469B1963449E42E1
:1015A80003D980267602B44660441E0C301816040F
:1015B8001B04360C9E19814200D29CE000D197E0B2
:1015C800AE1B091AB54280414042081A844200D134
:1015D80011E14946FEF716FE019A0B044243310C0D
:1015E800050019438A4207D90919013D8C4203D8DD
:1015F8008A4201D9851E0919881A4946FEF702FE52
:1016080009048C4631046646019A090C42430300DA
:1016180031438A4207D90919013B8C4203D88A42CF
:1016280001D9831E0919039E891A32002D041D430E
:10163800029F2B041B0C5A437B439C46280C4643B1
:10164800130CB444634478439E4203D9802676023F
:10165800B44660441E0C12041B04120C30189B186C
:10166800814206D302D001231D43CEE6002B00D1D0
:10167800CBE661186E1EA14200D2A4E0814200D2DE
:10168800C9E000D1D9E03500EDE701256D4201211F
:10169800891A382900DD4CE61F2900DC7FE01F236A
:1016A8005B429A1A4346D340202904D04446654AEF
:1016B8005A44944025436A1E954107222B4315003E
:1016C80000241D401A4200D1A1E00F2200241A4034
:1016D800042A00D198E01A1D9A429B415B42E41803
:1016E8001300220200D48FE001230024002523E602
:1016F800B54200D364E743465A1E009B9C466544A6
:101708001F009D429B415B421B19C9188C423AD26B
:10171800884263D860D0904652E7AA4200D9EAE6E8
:101728004346DE0758086B081E43ED07EAE64846BD
:1017380000F032FC01000200153120321C2900DCC7
:101748001AE64B46083883400025984620E600F004
:1017580023FC03001A00153220301C2A00DC30E676
:101768005446083B00229C4035E60F232B40042BAF
:1017780000D152E605235B42AB429B4104355B42F4
:10178800ED0898444AE68C42C5D1AF42C0D990468C
:1017980016E78A4200D8EAE6831E0919E7E62A4ACC
:1017A80028005A44434695409340C8406A1E9541D4
:1017B800444603432B43CC405A0792D00F221A4089
:1017C800042A88D18DE73500814200D04BE7009A82
:1017D800934200D047E718E6AE429CD902235B4209
:1017E8009C46009BE0449C4665449D429B415B426D
:1017F8001B19C918E4E6154A5A44002A00DC44E7D4
:1018080001230025984409E665076402240BDB08D8
:101818001D43002390E5009E023D7200B242BF4185
:101828007F423C1909190092CEE7802443462403DD
:101838001C432403064B240B7EE5009A9A42EAD304
:101848003500C4E73E0400001E040000FF0300004A
:10185800FF070000F0B557464E464546DE46E0B560
:1018680098460C034B000600924687B0240B5B0D8C
:10187800CF0F002B6CD0DD4A934200D186E0420F97
:10188800E4001443802212041443D94AC500944644
:1018980063440093002399469B46434642461E03F1
:1018A800D20F5B0050469046360B5B0D00D178E0B6
:1018B800CE4A93421DD0CE49420F8C4600996344CC
:1018C800F6008C46164380229C4412046346164355
:1018D800C200002000930099434601318C464946D6
:1018E8007B4001930F2900D97EE0C24B89005958EB
:1018F8008F465246009B324300D056E1BB49002632
:101908008C466344494600930223194389460220C2
:10191800E1E7434601933400150083465B46022BFA
:101928005ED0032B00D1F3E1012B00D018E1002297
:1019380000240025019B12052243DB071A432800D7
:10194800110007B0F0BCBB46B246A946A046F0BDA0
:101958002500054300D141E1002C00D1ADE1200074
:1019680000F01AFB010002000B391D2310005B1A5E
:101978003100350008388440D94085400C439E48E2
:10198800831A0093002399469B4686E70500254362
:1019980000D01CE1082200930223002491469B46B4
:1019A8007BE75246324300D10AE1002E00D176E1AE
:1019B800300000F0F1FA02000B3A1D2301009B1AD7
:1019C80052460839DA408E40164352468A40009BF8
:1019D8008949181A03008C466344002000937AE76B
:1019E80000240025814AA5E72F0C2D042D0C2B007F
:1019F800110C1204120C53439846130028007B4321
:101A0800994648434844834640460B00000C8246AA
:101A180058467B4350440293814506D99A46802311
:101A28005B029946CA4453460293030C9B464346BD
:101A38001B0400041B0C9846030043440493330C16
:101A480099462B003604360C7343984633007B4383
:101A58009A464B465D435F4343465544180C40192C
:101A6800824503D980235B029A465744050CEB193B
:101A7800059343461D042D0C00044019250C24042D
:101A8800240C270057436A4390462A003B0C9A4689
:101A98004A436143414451448344884503D98023E0
:101AA8005B02984642443F040B0C3F0C0904C919D9
:101AB800270098464B4677435C436E435D433B0C97
:101AC8009946A4194C4442440395A64204D980235C
:101AD8005B02984645440395029B3F045B441E0005
:101AE8008342804123049846059B3F0C474498460F
:101AF80076188E428941474440423D18A84693468D
:101B080049428A46C3449F42BF4180458041039B66
:101B1800DA449846534640427F420743240C934593
:101B280092418A4589413F19DC0D049B75021D438A
:101B3800681E85415346524249420A43BF184744EA
:101B4800F60D7F0235435A023C431543FB0100D48E
:101B5800C1E001216A080D401543E20715436408F6
:101B680026496144002956DD6B0709D00F222A4017
:101B7800042A05D02A1DAA42AD416D4264191500F8
:101B8800E30104D580211E4AC900144061441D4A5E
:101B9800914200DD24E76207ED0864024905154318
:101BA800240B4A0DC6E60197B8E6104A032094466E
:101BB80063444A46009303231A43914652468AE6F1
:101BC80049460123194389460026012083E60C2251
:101BD80000930323050091469B465EE6042399463D
:101BE80000230093013300249B4656E6FF070000BC
:101BF80001FCFFFF08CF00080DFCFFFFFF030000FA
:101C0800FFFFFFFEFE070000002380240025444A52
:101C1800019324038EE60120401A382800DD86E669
:101C28001F285BDD1F2223005242511ACB401900A6
:101C3800202803D03B4A6244944025436A1E9541BC
:101C48002A000A4307210D000024154011425BD0E9
:101C58000F2100241140042953D0111D91429241B3
:101C68005242A4180A0023024BD501220024002561
:101C780060E680231B031C4209D01E4207D1334370
:101C88001C0343461500240B254A019352E6802283
:101C9800120314432403224A240B01974AE600F056
:101CA8007BF903001A00153220301C2A00DC84E678
:101CB8005646083B00229E4089E600F06DF9010077
:101CC8000200153120321C2900DC4EE634000838A9
:101CD8000025844053E6009B9C4641E712492200B8
:101CE80061442E008D408A40C640691E8D413243B2
:101CF8002A43C4405307B6D00F2111400429ACD160
:101D0800B1E765076402240BD2081543002211E6E7
:101D18008022120314432403014A240B0AE6C04616
:101D2800FF0700003E0400001E0400000A0030B552
:101D3800134C530009030500090B00205B0DD20F5B
:101D4800A34204DD0F48834202DD0F4BD01830BD9B
:101D58008020400301430D48C01A1F2808DD0C48A5
:101D6800C31AD9400B005842002AF0D11800EEE7F8
:101D7800084CC540A446634499400B002B43F2E746
:101D8800FE0300001D040000FFFFFF7F3304000076
:101D980013040000EDFBFFFF70B5002816D0C31731
:101DA800C5185D40C40F280000F0F6F8114A121A51
:101DB8000A2816DC03002E0015339E400B23181A40
:101DC800C54053052D032D0B5B0D03E000240023B4
:101DD800002500261B052B43E40723433000190088
:101DE80070BD0B38854053052D0300262D0B5B0D68
:101DF800F0E7C0461E04000070B543004602C40F59
:101E0800FE201B0E591C750A08420CD0E0229200D5
:101E180094466D07360B63441B053343E40723439D
:101E28002800190070BD002B14D1002D1BD02800EC
:101E380000F0B2F80A281CDC0B232A001B1ADA402F
:101E4800030015339D400E4B12031B1A5B05160B3E
:101E58005B0DE1E7002D09D0320B80263603094BD4
:101E68006D071643D8E700230026D5E70026054B63
:101E7800D2E703002A000B3B9A400025E3E7C0465F
:101E880089030000FF07000002004B00F0B50803BB
:101E98005B0D3D4ECC0F400A510F5F1C0843D50027
:101EA80037420AD039495E18FE2E16DDFF2300217D
:101EB800DB050B43E0071843F0BD002B06D1284390
:101EC80027D005218901490ADBB2F1E70543EDD0A6
:101ED8008021C903FF230143EAE7002E1CDD92019C
:101EE80011004A1E9141C0006D0F014329434B0761
:101EF80048D00F230B40042B00D004318023DB048F
:101F08000B403FD0721CFE2ED0D08901490AD3B2B3
:101F1800CEE700230021CBE73200173222DB8021F5
:101F28001E2209040843921B1F2A1DDD0221494273
:101F38008E1B0100F1400E00202A04D0144A94465A
:101F480063449840054329004D1EA94131430026AA
:101F58004B07CED180200B00C00401220340014270
:101F6800D3D1AFE70023ACE70A498C462900634484
:101F7800D1409D400A00290098404D1EA9410143C7
:101F88001143E4E733009DE7FE07000080FCFFFFF4
:101F9800A2FCFFFF82FCFFFF1C2101231B049842C7
:101FA80001D3000C10391B0A984201D3000A0839E2
:101FB8001B09984201D30009043902A2105C401899
:101FC8007047C0460403020201010101000000003D
:101FD800000000008446101C62468C46191C6346AB
:101FE80000E0C0461FB500F0CDF9002801D400215B
:101FF800C8421FBD10B500F017F94042013010BDAE
:1020080010B500F0BFF9002801DB002010BD012049
:1020180010BDC04610B500F0B5F9002801DD00205C
:1020280010BD012010BDC04610B500F039F90028D8
:1020380001DC002010BD012010BDC04610B500F025
:102048002FF9002801DA002010BD012010BDC0467C
:10205800002B11D1002A0FD1002900D1002802D06D
:102068000021C943081C07B4024802A14018029085
:1020780003BDC0466DE3FFFF03B4684601B502988F
:1020880000F006F8019B9E4602B00CBC7047C046A3
:10209800F0B557464E464546DE46E0B504000D000D
:1020A8009246994683B08B4230D82DD04946504647
:1020B80000F0AEFD29000600200000F0A9FD331A4B
:1020C8009846203B9B4633D45A4653469340424653
:1020D8001F00534693401E00AF423AD8AF4200D18A
:1020E80078E05B46A41BBD41002B00DA75E00022B6
:1020F80000230092019301235A4693400193012340
:1021080042469340009328E08242CFD90022002320
:10211800009201930C9B002B01D01C605D6000981D
:10212800019903B0F0BCBB46B246A946A046F0BD33
:10213800424620239B1A5246DA40414613004A463B
:102148008A40170042461F43534693401E00AF4241
:10215800C4D900220023009201934346002BD9D012
:10216800FB0772081A4346467B080EE0AB4201D1D2
:10217800A2420CD8A41A9D41012024196D410021C6
:10218800013E24184D41002E06D0AB42EED9013E47
:1021980024196D41002EF8D1009801995B46001969
:1021A8006941002B24DB2B005A464446D3402A00C1
:1021B800E2401C005B461500002B2ADB26009E40EF
:1021C800330026004746BE403200801A99410090ED
:1021D80001919FE7A342BCD883E742462023002110
:1021E8009B1A0022009101920122DA40019286E7AF
:1021F800424620239B1A2A0046469A402300F34071
:10220800444613432A00E2401C005B461500002B9D
:10221800D4DA42462F002023260097409B1ADE403E
:102228003B003343CDE7C046F0B54F464646D64659
:10223800944691461A03120B184DC0B54C000F0373
:1022480092465A00060080463F0B0120640DC90FD4
:10225800520DDB0FAC420AD0AA4203D0944201D1FE
:1022680057450DD0E0BCBA46B146A846F0BD3D0082
:102278003543F7D1A242F5D1524665462A43F1D1FA
:102288000120C845EED1994206D0002CEAD13E4340
:102298003000461EB041E5E70020E3E7FF070000F5
:1022A800F0B54E4645465746DE4604001800E0B5F0
:1022B80016001B031B0B324D0F034A0099464300BF
:1022C800A446B0463F0B520DC90F5B0DC00FAA4282
:1022D80029D0AB4218D0002A2AD13C43A3466542F4
:1022E8006541002B02D14C46264327D0002D15D13D
:1022F800814228D00220013908400138F0BCBB4691
:10230800B246A946A046F0BD4D462E432FD1002A1D
:10231800EED13C4365426541002DE9D00028EDD15E
:1023280001204042EAE73D00254320D19342EBD00B
:10233800002BDDD14C462643DAD1DBE75B46002093
:10234800002BDBD0D6E79A420ADCE7DB4F45D1D831
:1023580010D000204F45D1D20029E1D00800CDE7A8
:10236800434258410223404218400138C6E7022040
:102378004042C3E7C445BDD80020C445BED2EBE700
:10238800FF070000F0B54E4645465746DE460400B6
:102398001800E0B516001B031B0B314D0F034A0054
:1023A80099464300A446B0463F0B520DC90F5B0D3A
:1023B800C00FAA4211D0AB4214D0002A2FD13C43FF
:1023C800A34665426541002B14D14C46264311D1E2
:1023D8005B460020002B17D010E03D00254312D1AA
:1023E80093421CD14D462E430DD1002A04D13C43C3
:1023F80065426541002D0DD1814216D00220013978
:102408000840013800E00220F0BCBB46B246A946AD
:10241800A046F0BD0028F7D101204042F4E7002B88
:10242800EAD14C462643E7D1E8E79A4206DD434223
:1024380058410223404218400138E5E79A42E9DB57
:102448004F45DBD806D000204F45DDD20029E3D028
:102458000800D9E7C445D1D80020C445D4D2F5E74F
:10246800FF070000F8B557464E464546DE460400CD
:10247800E0B51F0010000B03620F4E00CD0F5B0A82
:1024880039031343490AE200440F2143C24C9146E1
:102498009246C0007A008046760D520DFF0FA24288
:1024A80000D1B4E001246740BB46BD4200D188E0BA
:1024B800B41AA446002C00DCB2E0002A00D1C5E022
:1024C800B54A964200D18BE280221204114362463B
:1024D800382A00DDA1E11F2A00DD16E220270C00C2
:1024E800BF1ABC400200A0466446B840E2404446D9
:1024F80014430200501E82416046C14022435B1AC9
:1025080049468C1AA145924152429B1A9846434625
:102518001B0200D417E143465B025B0A9846434618
:10252800002B00D16CE14046FFF736FD0200083A67
:10253800202120004346891A9340C8409440034311
:10254800964200DD57E1961B711C1F2900DDCBE187
:10255800202218002600521A94409040CE40CB40CA
:10256800621E94413043984600260443630709D00D
:102578000F232340042B05D0231DA342A44164420A
:10258800A0441C0043461B0200D4DFE0824B013606
:102598009E4200D1FBE04246804BE4081A401300FB
:1025A800710552075B0222431B0B490D0905ED0714
:1025B800194329431000F0BCBB46B246A946A046C1
:1025C800F8BDB41AA446002C58DD002A00D19EE0BC
:1025D800714A964200D13BE18022120411436246BF
:1025E800382A00DDC1E01F2A00DCBBE10C00203ADC
:1025F800D44022006446202C04D040273F1BB94019
:10260800084380464446611E8C411443B1E00C00E7
:1026180004432AD0BB46BD422DD0614CA446B444E5
:102628006446002C5CD0941BA446002E00D015E113
:102638004D461D4300D1C3E1651E012C00D10CE2BB
:10264800554EB44200D1F8E1AC460EE10A0002430F
:1026580000D136E12200013A012C00D1C6E14E4CEE
:10266800A44500D1F4E0944631E701246740BB4615
:10267800BD4200D01CE74A4CA446B4446446002C32
:1026880000D1CFE0941BA446002E00D15CE1424E5D
:10269800B24200D1ECE18026360433436446382C3C
:1026A80000DDB3E11F2C00DD38E22026361B1C00BC
:1026B800B4404F46A0466446E74044463C434F4634
:1026C800B7403E00771EBE4134436646F340C91802
:1026D800241884429B415B429846160088444EE089
:1026E800304A741C144200D0D6E04A461A43002EE1
:1026F80000D05BE1002A00D1A5E10A00024300D026
:10270800BBE14A465907D2080A43DB0827E00A001A
:10271800024300D174E12200013A012C05D01E4C7D
:10272800A44500D194E0944659E74844484592416D
:102738005B189846040052429044434602261B0206
:1027480000D5C4E0013E630700D011E74346B44614
:102758005907E2080A43DB080F498C4540D0614617
:102768001B0349051B0B490D20E701430C00611EA3
:102778008C414C444C4592415242904698444346C1
:102788001B02E0D5044B01369E4200D09FE0310089
:10279800002300220AE7C046FF070000FFFF7FFF73
:1027A80001F8FFFFFE070000002A00D160E10A00DF
:1027B80002434DD04A465C07D20822438024DB08F6
:1027C8002403234207D0CE08264204D15D463300B5
:1027D800C20849070A43510FD200D20849070A43E1
:1027E8001100194300D1C8E1802109030B431B03E1
:1027F800D5491B0BDAE6D549B61A0B409846B5E61B
:102808002000FFF7C9FB020018321F2A00DC8FE600
:10281800230008388340002492E608430200501E33
:1028280082416DE6CA4C721C224200D0ADE04A4695
:102838001A43002EB8D1002A00D158E10A000243F9
:1028480000D059E14A465907D2080A43DB0886E70F
:102858004A465907D2080A43DB08C1E7BA4DAA42DB
:1028680000D11EE180252D042B436446382C5DDC05
:102878001F2C00DDD0E0202567462D1B4E461C008E
:10288800FE40AC4034434E46AE403500FB406E1E21
:10289800B541C91A2C434EE04A46141AA145924143
:1028A800524290465F1A3A004746D21B904612029F
:1028B80000D58BE04246224300D030E600230025B5
:1028C8004DE74A465907D2080A43DB0844E742461F
:1028D8009E4B61081A401300012214400C43DA078A
:1028E8005B089846144341E61A001F3EF240160062
:1028F800202903D04022511A8B401C43621E944168
:1029080000233443984600261DE70C00203AD440A3
:1029180022006446202C04D040273F1BB9400843BE
:1029280080464446611E8C412243E9E54C462343D8
:102938001C00631E9C41041BA0429B415B42CB1AB6
:1029480098465D461600E2E54E461E4300D1AEE0CD
:10295800661E012C00D1FDE07B4FBC4200D107E18F
:10296800B4469BE664462022121B0C0094400700E4
:102978009040A0466446421E90416246E740444665
:10298800D1403C4304435B18F3E66F4CA24200D1AC
:10299800D5E048445B184845894149425B18DC0743
:1029A80040085B08984616000443CCE6002A00D08D
:1029B80082E00A00024340D1802300251B0313E76D
:1029C8004B07C2081A435D46CB08C5E64A46841A37
:1029D800A0429241CB1A52429B1A98465D469EE508
:1029E8004A465907D2080A43DB08F9E64A46141A48
:1029F800A14592415B1A52429B1A9846012686E5E8
:102A08004A465907D2080A43DB08A5E64C46234341
:102A18001C00631E9C415BE665461E00203DEE409F
:102A2800202C05D040252D1BAB404C461C43A2460C
:102A38005446631E9C4134437DE74B07C2081A4342
:102A48005D46CB08CCE60A00024300D136E74B07C7
:102A5800C2081A435D46CB0881E64A46841AA0425A
:102A68009241CB1A52429B1A98465D4601264EE582
:102A78004B07C2081A43CB08B2E64A46141AA145C6
:102A880092415F1A5242BA1A904612026BD54A46D0
:102A9800841AA0429241CB1A52429B1A98465D462C
:102AA80064E54B07C2081A435D46CB0898E64B0716
:102AB800C2081A43CB084FE60A00024390D04A46A0
:102AC8005C07D20814438022DB081203134208D0A3
:102AD800CE08164205D1C0084907084304005D46E0
:102AE8003300610FE2004907D2080A4378E64B0732
:102AF800C2081A43CB0832E648445B18484592415D
:102B0800984652429044434604001B0200D41AE6F9
:102B180042460E4B01261A40904614E666461F00B0
:102B2800203EF740202C05D04026361BB3404C46AB
:102B38001C43A2465446631E9C413C43C8E5110011
:102B48000023002232E5C046FF070000FFFF7FFF99
:102B5800FE0700004A461418844292415B189846C2
:102B680052429044E9E54246224300D1A6E6EAE50E
:102B78004B07C2081A43CB0832E60022014913006A
:102B880014E5C046FF07000070B505000C480C03AB
:102B9800160049001A035B00240B490D120B5B0D4C
:102BA800814208D0064900208B4203D132431000ED
:102BB800421E904170BD01202C43FBD1F2E7C04674
:102BC800FF07000010B5041E10D0FFF7E5F90F4B02
:102BD8001B1A0A2811DC0B222100121AD1401530C9
:102BE8000A035B058440120B5B0D01E00023002201
:102BF8001B0513432000190010BD22000B3882402A
:102C08005B0512030024120B5B0DF1E71E040000A4
:102C180010B5002903D1FFF7BFF9203002E0081CE6
:102C2800FFF7BAF910BDC04610B50400114B19687A
:102C3800002901D1012010BDFA208000FDF75CFABF
:102C480001000D4B1868FDF757FA00F099F80028B5
:102C58000DD1032C01D90120EDE70130002221001C
:102C6800404200F051F8054B1C600020E3E70120CA
:102C7800E1E7C0460000002010000020040000200A
:102C880010B5084A116880235B000B4313600020CD
:102C9800FFF7CAFF041E02D00124200010BD03F074
:102CA80001FAFAE700200240034A13680349096859
:102CB8005B1813607047C046E4090020000000203C
:102CC800014B18687047C046E409002070B504003D
:102CD800FFF7F6FF0500631C02D0044B1B68E418DD
:102CE800FFF7EEFF401BA042FAD370BD00000020A2
:102CF800034A136803490B40034313607047C046F7
:102D080000000140FFF9FFFF70B5002811DB8308C0
:102D1800134EC0339B009D5903242040C000FF225E
:102D280014008440A54389010A4082402A439A51ED
:102D380070BD0F230340083B9B0806339B00094ADC
:102D4800944663445C6803221040C000FC321500BE
:102D58008540AC4389010A40824022435A60E7E734
:102D680000E100E000ED00E0002805DB1F2318402B
:102D78001E3B8340014A13607047C04600E100E0F3
:102D8800013880235B0498420FD2094A50600948F1
:102D9800036A1B021B0AC02109060B4303620023B6
:102DA800936007331360002070470120FCE7C0469A
:102DB80010E000E000ED00E0F0B5D6464F4646468C
:102DC800C0B500233BE0032600E00026A6403400FF
:102DD8003C435A4E1832920094518022B4584A46C5
:102DE800D24326004D46AE434D68ED0302D54D460D
:102DF8002C432600514C8027E6518426A4592600EE
:102E080016404D68AD0302D54D462C4326004B4C69
:102E18008427E6512468260016404D68ED0202D545
:102E28004D462C432600454C2660646822404D6878
:102E3800AD0201D54A462243404C626001330C681A
:102E48002200DA4075D001229A4025001540A94693
:102E58001442F3D04C68022C01D0122C0ED1DC089D
:102E68000834A400275807261E40B6000F25B54091
:102E7800AF430D69B5402E003E4326500468A44672
:102E88005E000324A2462700B740B846FF436546C4
:102E98004446A543AC464C68554625402C00B440F2
:102EA80065462C4304604C68651E012D03D9112C1E
:102EB80001D0122C13D184683C40A446CC68B4409D
:102EC80065462C4384604468944322004C68240976
:102ED800A446012465462C409C4014434460C268C3
:102EE80017408A68B2403A43C2604A68D200A5D502
:102EF8009A0814001834A400104EA75903241C4043
:102F0800E4000F26A640B743A026F605B04200D13C
:102F18005BE70B4EB04208D00A4EB04207D00A4ECB
:102F2800B04200D14FE7052650E701264EE70226BA
:102F38004CE7E0BCBA46B146A846F0BD00180240CE
:102F48000004005000080050000C0050002A01D076
:102F5800816170478162FCE74369194201D081624F
:102F680070478161FCE703689A69920701D50022DE
:102F78009A6203689A69D20703D49A6901210A43BD
:102F88009A617047F0B5059C05686868660D8027EA
:102F9800FF003740054E3E43B0438905890D1204B2
:102FA80011431943214301436960F0BDFF63FF03E7
:102FB800F8B505000F00160003689B69DB0601D40D
:102FC8000020F8BD2B689C69A20615D47B1CF9D09B
:102FD800FFF776FE801BB84201D8002FF2D16B6C48
:102FE800202213436B644123EA5400232232AB545A
:102FF800023AAB540120E4E71022DA612B6820245E
:10300800DC612800FFF7AFFF2A68536807490B40C7
:1030180053606B6C042213436B644123EC5400230C
:103028003E32AB54023AAB540120CAE700E800FE36
:1030380070B504000D00160023689B699B071CD41B
:10304800320029002000FFF7B3FF002817D16B1CBE
:10305800F2D0FFF735FE801BA84201D8002DEBD136
:10306800636C2022134363644123E2540023223219
:10307800A354023AA354012000E0002070BD0120AF
:10308800FCE7F0B5C64600B507000D0090461E00E7
:103098003B689C692C40641B63425C41444516D1E3
:1030A800731CF5D0FFF70CFE069BC01AB04201D87E
:1030B800002EEDD17B6C202213437B644123FA540C
:1030C80000232232BB54023ABB54012000E0002006
:1030D80080BCB846F0BD000070B582B00400150091
:1030E8001E008023F2B2194800905B042000FFF70D
:1030F80049FF079A06992000FFF79AFF00281ED17A
:10310800012E0ED12368EDB29D62079B0093069BAA
:10311800002280212000FFF7B4FF002813D102B05D
:1031280070BD23682A0A9A62079A06992000FFF759
:103138007FFF002805D12368EDB29D62E5E70120F5
:10314800EDE70120EBE70120E9E7C0460020008019
:1031580070B505000C0016002B689B699B061AD4F5
:10316800320021002800FFF723FF002815D1FFF7C0
:10317800A7FD801BA04201D8002CEDD16B6C20224A
:1031880013436B644123EA5400232232AB54023ABE
:10319800AB54012070BD0020FCE70120FAE70000D5
:1031A80070B504000D00160023689B695B0733D4D3
:1031B800320029002000FFF7FBFE00282ED12368EB
:1031C8009A69920611D4FFF77BFD801BA84201D8AB
:1031D800002DE9D1636C2022134363644123E25438
:1031E800013B0022E254012070BD9A69520702D5C2
:1031F800228D002AF8D12022DA6121684B6808481C
:1032080003404B6000236364412162542232A3547B
:10321800023AA3540120E7E70020E5E70120E3E7AD
:1032280000E800FE10B5041E59D04123C35C002BF2
:1032380043D041232422E2542268136801218B439E
:1032480013602268274B61680B40136122689368FA
:1032580025490B409360E368012B34D0226884230E
:103268001B02A1680B439360E368022B32D02268EB
:1032780051681E4B0B4353602268D3681A490B40B0
:10328800D360236962691343A26912022168134358
:10329800CB602268E369216A0B43136022681368D4
:1032A80001210B4313600023636441221F31A154A1
:1032B80023630132A354002010BD40330022C254BE
:1032C80002F00CFFB5E7226880231B02A1680B43BC
:1032D8009360C9E72368802212015A60C7E701207A
:1032E800EAE7C046FFFFFFF0FF7FFFFF0080000214
:1032F800F0B585B004000F00029203930A9D4123A4
:10330800C35C202B00D09BE02033C35C012B00D191
:1033180099E040230122C254FFF7D2FC0600802125
:1033280000901923012209022000FFF7AAFE0028B5
:1033380000D08AE041232122E2540133113AE254B9
:1033480000236364029A6262039A62856363638DF1
:103358009BB2FF2B0BD9FF2323857F3B3F4A00926B
:103368005B04FF2239002000FFF70CFE18E0628D95
:1033780092B222858023D2B2384900919B04390049
:103388002000FFF7FFFD0BE0628D92B222858023BB
:10339800D2B2002100919B0439002000FFF7F2FD12
:1033A800638D9BB2002B34D0320029002000FFF738
:1033B8003FFE00284BD12368626A12789A62636ADA
:1033C80001336362638D013B9BB26385238D013BAF
:1033D8009BB22385628D92B2002AE1D0002BDFD107
:1033E80000962B00002280212000FFF74AFE0028CB
:1033F8002FD1638D9BB2FF2BC6D9FF2323857F3B3B
:10340800002200925B04FF3239002000FFF7BAFD6A
:10341800C6E7320029002000FFF79AFE00281AD1DB
:1034280023682022DA6121684B680D4D2B404B60E0
:103438004123E25400232232A354023AA35400E069
:10344800022005B0F0BD0220FBE70120F9E70120CA
:10345800F7E70120F5E70120F3E7C04600200080E8
:1034680000E800FEF0B585B004000F000292039357
:103478000A9D4123C35C202B00D09BE02033C35C12
:10348800012B00D199E040230122C254FFF718FC18
:103498000600802100901923012209022000FFF76D
:1034A800F0FD002800D08AE041232222E2540133B3
:1034B800123AE25400236364029A6262039A6285B4
:1034C8006363638D9BB2FF2B0BD9FF2323857F3B5F
:1034D8003F4A00925B04FF2239002000FFF752FDAB
:1034E80018E0628D92B222858023D2B238490091C9
:1034F8009B0439002000FFF745FD0BE0628D92B276
:1035080022858023D2B2002100919B04390020003B
:10351800FFF738FD638D9BB2002B34D032002900B1
:103528002000FFF73DFE00284BD123685B6A626AE2
:103538001370636A01336362238D013B9BB2238559
:10354800628D013A92B26285628D92B2002AE1D010
:10355800002BDFD100962B00002280212000FFF7EE
:1035680090FD00282FD1638D9BB2FF2BC6D9FF2376
:1035780023857F3B002200925B04FF323900200044
:10358800FFF700FDC6E7320029002000FFF7E0FD45
:1035980000281AD123682022DA6121684B680D4D72
:1035A8002B404B604123E25400232232A354023AB9
:1035B800A35400E0022005B0F0BD0220FBE7012083
:1035C800F9E70120F7E70120F5E70120F3E7C04616
:1035D8000024008000E800FEF0B587B004000391E5
:1035E800049205930CAB20CB1F884123C35C202B8E
:1035F80000D0B3E0002D18D0002F16D04023C35CB4
:10360800012B00D1ADE040230122C254FFF758FB43
:103618000600802100901923012209022000FFF7EB
:1036280030FD002806D0012099E080239B006364C8
:10363800012094E041232122E25401331F32E25455
:103648000023636465626785636301960E9B00933C
:10365800059B049A03992000FFF73EFD00280FD12F
:10366800638D9BB2FF2B10D9FF2323857F3B00225C
:1036780000925B04FF3203992000FFF783FC21E0EE
:1036880040230022E254012069E0628D92B2228533
:103698008023D2B2002100919B0403992000FFF7F8
:1036A80071FC0FE0628D92B222858023D2B2002194
:1036B80000919B0403992000FFF764FC638D9BB283
:1036C800002B34D032000E992000FFF7B1FC0028FF
:1036D80049D12368626A12789A62636A0133636225
:1036E800638D013B9BB26385238D013B9BB2238590
:1036F800628D92B2002AE1D0002BDFD100960E9B9A
:10370800002280212000FFF7BCFC00282DD1638D0A
:103718009BB2FF2BC6D9FF2323857F3B0022009253
:103728005B04FF3203992000FFF72CFCC6E7320048
:103738000E992000FFF70CFD002818D123682022DD
:10374800DA6121684B680B4D2B404B604123E254F2
:1037580000232232A354023AA35400E0022007B007
:10376800F0BD0220FBE70120F9E70120F7E701207F
:10377800F5E7C04600E800FEF0B54123C35C202B06
:1037880020D12033C35C012B1ED0402401220255D6
:1037980041252423435506683368934333600668FC
:1037A80033680A4F3B403360066833681943316019
:1037B80001680B6813430B6020234355002303550E
:1037C8000020F0BD0220FCE70220FAE7FFEFFFFF30
:1037D800F0B54123C35C202B1ED12033C35C012BE1
:1037E8001CD0402401220255412524234355066854
:1037F80033689343336006683368094F3B400902D6
:103808001943316001680B6813430B60202343554B
:10381800002303550020F0BD0220FCE70220FAE750
:10382800FFF0FFFF10B5104A136810490B4003431F
:10383800136080239B00984201D0002010BD0C4BE0
:103848001B685800C01840000A49FCF755FC0130B5
:10385800054B5B695B0503D5002803D00138F7E702
:103868000020EBE70320E9E700700040FFF9FFFFC5
:103878001000002040420F0070B582B0041E00D135
:103888002CE20368DB0739D5C14A916838230B401D
:10389800D16803220A40102B26D0082B26D0636853
:1038A8008022520293427FD0A022D202934200D1BA
:1038B80081E0B74B1A68B7490A401A601A68B649D6
:1038C8000A401A606368002B00D180E0FFF7F8F91E
:1038D8000500AF4B1B689B0310D4FFF7F1F9401BA1
:1038E8006428F6D90320FAE1032AD6D1A84B1B682D
:1038F8009B0303D56368002B00D1F2E123689B0783
:1039080031D5A34A936838210B40D16803220A4075
:10391800102B6AD0002B6BD19D4A1268520503D533
:10392800E268002A00D1DEE1994842689B490A40D2
:10393800616909020A434260002B0DD10368984966
:103948000B4021690B4303600368DB0A07221A4016
:10395800944BD340944A1360944B1868FFF764F96A
:10396800002800D0C1E123681B0700D481E0884B00
:103978009A6838231340182B73D0A369002B00D101
:10398800B4E0834A136E01210B431366FFF798F9DD
:1039980005007F4B1B6E9B076BD4FFF791F9401B0B
:1039A8000228F6D903209AE1794A116880235B023C
:1039B8000B43136086E7764B19688022D2020A43CC
:1039C8001A601968802252020A431A607AE7FFF7E0
:1039D80077F905006E4B1B689B038FD5FFF770F9CD
:1039E800401B6428F6D9032079E1022A92D193E793
:1039F800E368002B22D0664A136869490B402169A5
:103A08000B431360116880235B000B431360FFF7BF
:103A180057F905005E4B1B685B0506D4FFF750F9A4
:103A2800401B0228F6D9032059E159494B685B4AE3
:103A380013406269120213434B6094E7544A1368B7
:103A48005B490B401360FFF73BF90500504B1B68BF
:103A58005B0588D5FFF734F9401B0228F6D9032007
:103A68003DE14B4B1B6E9B0703D5A369002B00D18F
:103A78003DE123685B0700D4A2E0454B9A683823F0
:103A88001340202B45D0424BDB6BDB004AD4404A25
:103A9800D16B802040050143D163D36B0340019370
:103AA800019B0125434B1B68DB053DD5A368012B12
:103AB8004ED0052B52D0364BDA6D01218A43DA6598
:103AC800DA6D03318A43DA65A368002B50D0FFF71B
:103AD800F7F806002E4BDB6D9B076FD4FFF7F0F865
:103AE800801B354B9842F5D90320F8E0284A136E1D
:103AF80001218B431366FFF7E3F80500244B1B6E87
:103B08009B07B6D5FFF7DCF8401B0228F6D903203F
:103B1800E5E01F4BDB6D9B0752D5A368002B4FD107
:103B28000120DCE00025BDE7224A116880235B0004
:103B38000B431360FFF7C4F806001E4B1B68DB0538
:103B4800B4D4FFF7BDF8801B0228F6D90320C6E0DD
:103B58000F4AD36D01210B43D365B5E70C4BDA6DE2
:103B680004210A43DA65DA6D03390A43DA65ABE7FB
:103B7800FFF7A6F80600064BDB6D9B071ED5FFF77F
:103B88009FF8801B0C4B9842F5D90320A7E0C0464C
:103B980000100240FFFFFEFFFFFFFBFFFF80FFFF5B
:103BA800FFC7FFFF0024F4001000002004000020DD
:103BB800FFFEFFFF0070004088130000012D26D093
:103BC800E369002B00D194E0514A916838220A40F9
:103BD800102A61D0022B20D04D4B1A684D490A405B
:103BE8001A60DA6803218A43DA60DA684A490A40C7
:103BF800DA60FFF765F80400454B1B689B0149D55F
:103C0800FFF75EF8001B0228F6D9032067E0404A58
:103C1800D36B42490B40D363D2E73D4A13683D4911
:103C28000B401360FFF74CF80500394B1B689B01EC
:103C380006D5FFF745F8401B0228F6D903204EE0C9
:103C4800334AD36836491940236A606A0343A06A35
:103C580000020343E06A0343206B03430B43D36032
:103C6800116880235B040B431360D16880235B05D4
:103C78000B43D360FFF724F80400254B1B689B0116
:103C880006D4FFF71DF8001B0228F6D9032026E00A
:103C9800002024E0002022E0012B2CD01C4BDA6805
:103CA80003231340216A8B4227D170231340616A92
:103CB8008B4224D1FE21C9011140A36A1B029942FB
:103CC8001FD1F8239B031340E16A8B421BD1520F8B
:103CD8005207236B9A4218D1002000E0012002B05D
:103CE80070BD0120FBE70120F9E70120F7E701207B
:103CF800F5E70020F3E70120F1E70120EFE70120D5
:103D0800EDE70120EBE70120E9E70120E7E7C046FE
:103D180000100240FFFFFFFEFFFFFEEFFFFFFFEF77
:103D28008C80C11F10B52A4B9B6838221A4207D1D4
:103D3800274B1A68D20A072313402648D84010BDDB
:103D4800234B9A6838231340082B3BD0204B9A68A2
:103D580038231340102B0DD01D4B9A68382313407D
:103D6800202B31D01A4B9A6838231340182B26D0B1
:103D78000020E4E7164AD1680D3B0B40D2681209CF
:103D8800072111400131032B0FD01248FCF7B4F979
:103D98000F4BDA68120A7F23134058430C4BD9683B
:103DA800490F0131FCF7A8F9C9E70B48FCF7A4F95A
:103DB800074BDA68120A7F2313405843EEE7FA20CC
:103DC800C001BCE70448BAE780200002B7E7C04654
:103DD800001002400024F40000127A0070B50400BC
:103DE8000D00002800D1AAE0574B1A68072313409A
:103DF8008B4221D323689A070ED55B0705D5534A12
:103E08009168E023DB010B439360504A9368504963
:103E18000B40A1680B4393602368DB0754D56368A4
:103E2800012B20D0022B3BD0002B3FD1474A1268F0
:103E380052051CD401206AE0434A136807218B43CA
:103E48002B431360FEF73CFF06003F4B1A6807231D
:103E58001340AB42CED0FEF733FF801B3D4A904261
:103E6800F3D9032053E0394A1268920369D53749D8
:103E78008A680720824313438B60FEF721FF060000
:103E8800324B9B6838221A406368DB009A421BD089
:103E9800FEF716FF801B2F4B9842F1D9032036E01E
:103EA8002A4A12689201E2D4012030E0032B05D09F
:103EB800264AD26D9207DAD4012028E0234A126EEE
:103EC8009207D4D4012022E01F4B1A68072313401D
:103ED800AB421DD823685B0706D51C4A93681E4968
:103EE8000B40E1680B439360FFF71CFF174B9A6880
:103EF800120A0F2313409B00184A9A581F23134095
:103F0800D840174B1860174B1868FEF78DFE70BD28
:103F18000D4A136807218B432B431360FEF7D0FE2D
:103F28000600094B1A6807231340AB42D2D0FEF7AC
:103F3800C7FE801B074B9842F3D90320E7E701200F
:103F4800E5E70120E3E7C0460020024000100240F8
:103F5800FFF0FFFF88130000FF8FFFFFD0DC000891
:103F68001000002004000020014B18687047C0466C
:103F78001000002010B5FFF7F7FF064B9A68120BE8
:103F8800072313409B00044A9A581F231340D84024
:103F980010BDC0460010024010DD0008F0B5C6464E
:103FA80000B507000D0090461E003B689C682C4039
:103FB800641B63425C4144453BD0731CF5D0FEF75B
:103FC8007FFE069BC01AB04201D2002EEDD13A689E
:103FD8005368E0218B43536082235B007A689A42DE
:103FE8000CD080239B01BA6A9A4216D05D23012225
:103FF800FA54013B0022FA5403201BE0BB688022DC
:104008001202934203D08022D2009342E9D13A6847
:10401800136840218B431360E3E73A681368074944
:104028000B4013603A68116880239B010B431360AF
:10403800DCE7002080BCB846F0BDC046FFDFFFFFCC
:10404800F8B5CE46474680B581460E00170098461B
:1040580002E0434601330DD14B461D68AC6834403D
:10406800BC424AD0C021C9008E42F2D1002FF0D103
:104078002B7BEEE7FEF724FE089BC01A404502D2D0
:104088004346002BE8D14B461A685368E0218B431E
:10409800536082235B004A4652689A420ED08023BE
:1040A8009B014A46926A9A4219D05D2301224946E9
:1040B800CA54013B0022CA5403201FE04B469B68A8
:1040C80080221202934203D08022D2009342E6D18A
:1040D8004B461A68136840218B431360DFE74B4651
:1040E8001A68136807490B4013604B461A68116831
:1040F80080239B010B431360D7E70020C0BCB9465F
:10410800B046F8BDFFDFFFFF70B582B004000D00B8
:104118001600C02100922B0000224901FFF790FFF2
:10412800002818D100962B00002280212000FFF7DC
:1041380035FF002816D1C02100962B000022C900A7
:104148002000FFF77DFF00280AD0236E20221343AA
:104158002366032004E0236E2022134323660320F2
:1041680002B070BD236E2022134323660320F7E7B5
:1041780010B5041E5ED0002383625D33C35C002B40
:104188004CD05D230222E2542268136840218B43FD
:104198001360E368E022D200934245D90022F0215F
:1041A80009018B4205D0E021C9008B4201D00021D2
:1041B800A162216B002905D1E021C9008B4236D9C3
:1041C800022323636368A1680B4321690B43616978
:1041D8000B4380218900A06901400B43E1690B432F
:1041E800216A0B432168A06A03430B60618B042397
:1041F8000B40616A0B43616B0B43E1680B43216819
:1042080013434B602268D3690B490B40D3610023E9
:1042180023665D330122E254002010BD5C33002286
:10422800C25401F091FFACE780225201B7E70123A5
:104238002363C7E70120F0E7FFF7FFFFF0B5CE469D
:1042480000B584B00400019191461D005C23C35C55
:10425800012B00D1E5E05C230122C254FEF730FDBA
:1042680006005D23E35CDFB2012B00D0C5E00199B5
:10427800002900D1C2E04B46002B00D1BEE05D23EF
:104288000322E25400232366A1634A46A287E287F9
:1042980023644422A3520232A3522365E364802399
:1042A8001B02A2689A421ED023681A68520603D4D9
:1042B8001A6840210A431A60E023DB00E2689A4248
:1042C80036D96368002B02D04B46012B1DD12368D9
:1042D800A26B1288DA60A36B0233A363E38F013BFE
:1042E8009BB2E38711E0226811688023DB010B434E
:1042F8001360D9E7FEF7E4FC801BA84202D36B1CCD
:1043080000D086E0002D00D185E0E28F92B2002A2D
:104318005BD023689A689207ECD5A26B1288DA60A2
:10432800A36B0233A363E38F013B9BB2E387ECE704
:104338006368002B02D04B46012B2FD1E38F9BB231
:10434800012B0BD92368A26B1288DA60A36B0233A6
:10435800A363E38F023B9BB2E3871FE0A36B1B7849
:1043680022681373A36B0133A363E38F013B9BB2F2
:10437800E38713E0A36B1B781373A36B0133A36369
:10438800E38F013B9BB2E38708E0FEF799FC801BB3
:10439800A84201D36B1C40D1002D40D0E28F92B2CD
:1043A800002A12D0226893689B07EED5E38F9BB250
:1043B800012BDFD9A36B1B88D360A36B0233A363E4
:1043C800E38F023B9BB2E387E8E732002900200035
:1043D800FFF79AFE002801D020232366A368002B4C
:1043E80006D103932368DA6803929B680393039BBF
:1043F800236E002B02D1002700E002275D23012253
:10440800E254013B0022E254380004B080BCB946B3
:10441800F0BD0327F2E70327F0E70327EEE70327BA
:10442800ECE70227F0E730B5036A046A0125AC43DC
:1044380004628469EF35AC43120122430A24A34382
:104448000B438261036230BD30B5036A1024A34375
:1044580003628469036A054D2C4012032243A02499
:10446800A343090119438261016230BDFF0FFFFFB9
:104478008368034A13400B4307210B43836070474B
:104488008FFFCFFF0268D36801210B43D360026816
:10449800936806490B40062B06D007398B4203D098
:1044A800136801210B4313600020704707000100C7
:1044B80070477047704770477047000010B5040098
:1044C80003681A6992070FD5DA6892070CD5032298
:1044D80052421A610123037703689B699B076AD0DC
:1044E800FFF7E8FF0023237723681A69520712D5DC
:1044F800DA6852070FD5052252421A610223237740
:1045080023689A69C0239B001A425AD02000FFF7FB
:10451800D1FF0023237723681A69120710D5DA68B8
:1045280012070DD5092252421A6104232377236802
:10453800DB699B074CD02000FFF7BCFF00232377E3
:1045480023681A69D20612D5DA68D2060FD5112265
:1045580052421A61082323772368DA69C0239B0033
:104568001A423CD02000FFF7A5FF002323772368D9
:104578001A69D20702D5DA68D20737D423681A69CC
:10458800120602D5DA68120637D423681A69D205EA
:1045980002D5DA68120637D423681A69520602D59A
:1045A800DA68520636D423681A69920602D5DA68A0
:1045B800920636D410BDFFF77CFF2000FFF77BFF83
:1045C80090E72000FFF775FF2000FFF774FFA0E7D2
:1045D8002000FFF76EFF2000FFF76DFFAEE7200019
:1045E800FFF767FF2000FFF766FFBEE7022252428F
:1045F8001A612000FFF75CFFC0E7812252421A616E
:10460800200000F02AF9C0E7094A1A61200000F0EA
:1046180025F9C1E7412252421A612000FFF74CFFF9
:10462800C1E7212252421A61200000F015F9C1E7C2
:10463800FFFEFFFF03681D4A904202D01C4A9042C9
:1046480003D1702293434A681343184A90420ED00C
:10465800174A90420BD0174A904208D0164A904207
:1046680005D0164A904202D0154A904203D1154A05
:104678001340CA681343802293434A691343036073
:104688008B68C3620B688362084B984208D00A4B58
:10469800984205D0094B984202D0094B984201D163
:1046A8000B690363012343617047C046002C014036
:1046B8000004004000200040004001400044014048
:1046C80000480140FFFCFFFF70B5041E14D03D23D5
:1046D800C35C002B0AD03D2502236355210001C984
:1046E800FFF7A8FF01236355002070BD3C3300226B
:1046F800C25401F05BFDEEE70120F6E730B58468AF
:10470800034D2C401B0213430B432343836030BDEE
:10471800FF00FFFF10B504003C23C35C012B66D0EB
:104728003C230122C25401330132C2540268936807
:104738003048034093600B68602B44D024D8402B4A
:104748004BD00BD9502B0ED1CA6849682068FFF7A7
:104758006AFE50212068FFF78BFE04E0202B0ED064
:1047680009D9302B0BD03D230122E254013B002212
:10477800E254002010BD002B01D0102BF3D11900FA
:104788002068FFF775FEEEE7702B10D080229201AB
:104798009342E8D1CB684A6889682068FFF7AEFF82
:1047A800226891688023DB010B439360DBE7CB68C9
:1047B8004A6889682068FFF7A1FF22689368772113
:1047C8000B439360CFE7CA6849682068FFF73CFE4F
:1047D80060212068FFF74CFEC5E7CA684968206871
:1047E800FFF721FE40212068FFF742FEBBE70220C9
:1047F800C0E7C0468800CEFF30B53C23C35C012B20
:1048080023D03C230122C25401330132C25402682E
:10481800536894680E4DAA4212D07025AB430D68B8
:104828002B438025AC438968214353600368996012
:104838003D230122C254013B0022C254002030BD56
:10484800044D2B404D682B43E7E70220F7E7C046AD
:10485800002C0140FFFF0FFF7047704770470000B2
:1048680010B5040083680269134342691343802228
:1048780012021A4301680B68AA48034013430B60ED
:1048880080221201236A1A43A369E1690B431A4380
:10489800E3681A4321684B68A348034013434B60FD
:1048A8002268D36A0F218B43616A0B43D362236862
:1048B8009E4A93420BD09E4A93426CD09D4A9342A3
:1048C8007CD09D4A934279D000230120A2E09B4BE3
:1048D8005A6D03231340022B00D1C5E02FD8002BBB
:1048E8006CD0012B28D1FFF71DFA636A002B00D189
:1048F800FDE0012B00D107E1022B00D106E1032BDB
:1049080000D105E1042B00D104E1052B00D103E11E
:10491800062B00D102E1072B00D101E1082B00D1C1
:1049280012E1092B00D111E10A2B00D110E10B2B68
:1049380000D1D9E00121DBE0002301206AE0032B4C
:1049480026D1636A002B00D107E1012B00D113E1C6
:10495800022B00D112E1032B00D111E1042B00D16D
:1049680010E1052B00D10FE1062B00D10EE1072B3A
:1049780000D10DE1082B00D10CE1092B00D10BE18E
:104988000A2B00D10AE10B2B00D1E3E00121E5E07D
:10499800002301203EE0694B5A6D0C231340082B7D
:1049A80062D006D8002B09D0042B9CD0002301200C
:1049B80030E00C2BC5D0002301202BE0FFF7DAFAFA
:1049C800636A002B1AD0012B3AD0022B3AD0032B62
:1049D8003AD0042B3AD0052B3AD0062B3AD0072BE5
:1049E8003AD0082B3AD0092B3AD00A2B3AD00B2BC5
:1049F80001D0012103E08021490000E00121FBF7FB
:104A08007BFB400063685B08C0186168FBF774FBB8
:104A1800030000204A491A00103A8A4200D9BFE030
:104A280099B20F2291435B08083A13400B4322685E
:104A3800D3600123A38763870023A364E36410BDC5
:104A48000221DCE70421DAE70621D8E70821D6E7C6
:104A58000A21D4E70C21D2E71021D0E72021CEE7A4
:104A68004021CCE78021CAE7636A002B1AD0012BCA
:104A780026D0022B26D0032B26D0042B26D0052B9C
:104A880026D0062B26D0072B26D0082B26D0092B7C
:104A980026D00A2B26D00B2B01D0012103E0802140
:104AA800490000E001212748FBF726FB4000636826
:104AB8005B08C0186168FBF71FFB03000020A9E72B
:104AC8000221F0E70421EEE70621ECE70821EAE7F6
:104AD8000A21E8E70C21E6E71021E4E72021E2E7D4
:104AE8004021E0E78021DEE78021490000E0012144
:104AF800FBF702FB400063685B08C0186168FBF7BE
:104B0800FBFA0300002085E70221F1E70421EFE723
:104B18000621EDE70821EBE70A21E9E70C21E7E7A1
:104B28001021E5E7F369FFCFF6C0FFFF0038014029
:104B38000044004000480040004C00400010024083
:104B4800EFFF00000024F4002021D1E74021CFE747
:104B58008021CDE78021490000E00121802000026A
:104B6800FBF7CAFA400063685B08C0186168FBF786
:104B7800C3FA030000204DE70221EFE70421EDE727
:104B88000621EBE70821E9E70A21E7E70C21E5E739
:104B98001021E3E72021E1E74021DFE78021DDE77D
:104BA800012046E7F8B5CE46474680B506000D0019
:104BB80017009946089B98463368DC692C40641BAB
:104BC80063425C41BC4213D143460133F4D0FEF743
:104BD80077F84B46C01A404502D84346002BEBD124
:104BE80059230122F254013B0022F254032000E031
:104BF8000020C0BCB946B046F8BD30B583B004004B
:104C08000023C365FEF75CF8050023681B681B07D3
:104C18000CD423681B685B0716D459230122E2547D
:104C2800013B0022E254002003B030BD8021FA236A
:104C38009B0000930300002289032000FFF7B2FFC6
:104C48000028E6D00320EFE78021FA239B00009399
:104C58002B000022C9032000FFF7A4FF0028DCD0A6
:104C68000320E1E710B5041E29D05923C35C002BAB
:104C78001FD059230222E2542268136801218B4372
:104C880013602000FFF7ECFD012811D0226853685B
:104C98000C490B405360226893682A218B43936028
:104CA8002268136829390B4313602000FFF7A5FF1A
:104CB80010BD58330022C25401F096FAD9E70120FA
:104CC800F6E7C046FFBFFFFF70B584B0040002AA34
:104CD800134B03CB03C26A46124B03CB03C2636C6C
:104CE800002B04D10133A387638704B070BD226809
:104CF80095686D0E07231D409268520F134002AE4F
:104D0800F05CC0006A46D15CFBF780FAA087705D52
:104D1800C0006B46595DFBF779FA6087E5E7C04646
:104D280040CE000848CF000870B55823C35C012B5B
:104D380014D058250123435559260222825501686B
:104D48000A680C689C430C6005490A4000214164CC
:104D58000468226083554155002070BD0220FCE79D
:104D6800FFFFFFDFF0B5C64600B504000B00582270
:104D7800825C012A1DD05826012585555927022213
:104D8800C2550268116888461168A9431160026813
:104D98009168C900C90819439160FFF795FF236816
:104DA80042461A60E5550023A355002080BCB8464A
:104DB800F0BD0220FAE70000F0B5C64600B50400D1
:104DC8000B005822825C012A1ED0582601258555E1
:104DD80059270222C2550268116888461168A943FA
:104DE80011600268916809480140194391602000E8
:104DF800FFF76AFF236842461A60E5550023A3556A
:104E0800002080BCB846F0BD0220FAE7FFFFFFF1A2
:104E180000B587B017236B4418700A220292093A2A
:104E2800019200930123002278210248FEF7D4FB67
:104E380007B000BD8C110020002303E0FF21064AC3
:104E4800D15401338022D200934203D20028F5D1F5
:104E58000100F4E77047C046F009002010B584B09F
:104E680000241AE020005038C0B2FFF7D1FF00201C
:104E7800FFF7CEFF1020FFF7CBFFE3016422029279
:104E88001C320192074A9B18009301234022782183
:104E98000548FEF7A1FB0134E4B2072CE2D904B0BF
:104EA80010BDC046F00900208C11002010B5642008
:104EB800FDF70CFFAE20FFF7ABFF2020FFF7A8FFA0
:104EC8001020FFF7A5FFB020FFF7A2FFC820FFF7CB
:104ED8009FFF0020FFF79CFF1020FFF799FF40205D
:104EE800FFF796FF8120FFF793FFFF20FFF790FF62
:104EF800A120FFF78DFFA620FFF78AFFA820FFF764
:104F080087FF3F20FFF784FFA420FFF781FFD3200E
:104F1800FFF77EFF0020FFF77BFFD520FFF778FF24
:104F2800F020FFF775FFD920FFF772FF2220FFF767
:104F38006FFFDA20FFF76CFF1220FFF769FFDB2015
:104F4800FFF766FF2020FFF763FF8D20FFF760FF64
:104F58001420FFF75DFFAF20FFF75AFF0120FFF78E
:104F68006BFFFFF77BFF044B00221A805A80013247
:104F78005A71012010BDC046E809002043B2002B39
:104F880015DB3F2913D8104B1B79002B02D0534255
:104F98005A41D2B2012A0BD0CB08DB0118180723DB
:104FA800194001228A4009490B5C93430B5470470E
:104FB800CB08DB011818072319408A4003490B5C0A
:104FC80013430B54F3E7C046E8090020F00900201A
:104FD800F0B5DE4657464E464546E0B583B08146B5
:104FE800009101929846264B1B88CEB29B197F2BC5
:104FF80042DC234B5B886A46527892469346534478
:105008003F2B3BDC00251FE01D4B18885988424682
:1050180053425A41D2B24919C9B20019C0B2FFF776
:10502800ADFF0134A6420ED93B00A3401B04EBD5CB
:10503800134B188859884919C9B20019C0B2424699
:10504800FFF79CFFEDE70135AA4509D94B46203B00
:105058005A4653435B195B00019A9F5A0024E1E7C3
:10506800074B198876181E80484603B0F0BCBB462B
:10507800B246A946A046F0BD0020F6E70020F4E7B6
:10508800E809002030B583B00400009101921D00AA
:10509800207800280AD02B000099019AFFF798FF82
:1050A80002002078824201D10134F1E703B030BD1B
:1050B800014B188059807047E809002040180028E3
:1050C80002DA1830FBE718381728FCDC704710B5EF
:1050D8000021FFF7F3FF10BDC9000A507047CB004D
:1050E8001B589A18642A03DC002A02DA002200E01E
:1050F8006422C9000A50704770B50500002405E015
:10510800002221002800FFF7E7FF0134172CF7DD04
:1051180070BD70B505001326002412E03000FFF7BB
:10512800D6FFE300EB185860230030339B0058513A
:105138002000FFF7CCFF330048339B00E8500134D0
:10514800013E0F2EEADC072612E03000FFF7BFFF12
:10515800E300EB185860230030339B0058512000BF
:10516800FFF7B5FF330048339B00E8500134013E98
:10517800072EEAD90F2612E03000FFF7A8FFE30058
:10518800EB185860230030339B0058512000FFF77C
:105198009EFF330048339B00E8500134013E072E40
:1051A800EADC172612E03000FFF791FFE300EB1866
:1051B8005860230030339B0058512000FFF787FFC9
:1051C800330048339B00E8500134013E132EEADCDB
:1051D8002800FFF791FF70BD483189000B58DB00AC
:1051E8001B58934201DC002070470120FCE70000B7
:1051F80084B010B503910492059300231F2B12DC91
:105208001A011158094A914201D00133F6E71B01EE
:1052180003AAC31813CA13C312681A60012010BC6A
:1052280008BC04B018470020F9E7C0460104000094
:1052380042600160009AC2608360704770B586B0B2
:105248000400002300930022084902A8FFF7F0FF9A
:1052580000211F2908DC0B0102AAE31861CA61C3F7
:1052680012681A600131F4E706B070BD010400004D
:1052780010B5084A084BDA62084B1B681968CA62FD
:105288001B6800225A62A02001321021C005FDF7D8
:105298005DFE10BDEE0200000004004084110020F5
:1052A80070B50024002509E0194802680C30210077
:1052B800FFF792FFA0400543EDB20134072CF3DD60
:1052C800134B1D72002400250AE0114802682100D2
:1052D80008310C30FFF780FFA0400543EDB20134E0
:1052E800072CF2DD0A4B5D72002400250AE008480D
:1052F8000268210010310C30FFF76EFFA040054313
:10530800EDB20134072CF2DD014B9D7270BDC04631
:10531800F00D002010B5FFF7C3FF114B1868642388
:1053280003221049FEF78AFFA024E4050122082180
:105338002000FDF70BFE002208212000FDF706FEE5
:10534800002210212000FDF701FE074A074BDA6210
:10535800074B1B681968CA621B6800225A6210BD95
:1053680080110020F80D0020A86100000004004012
:105378008411002002010B4B9B188D33FF331B68EF
:1053880059188023DB00994203DA002902DA06491A
:1053980000E000210001034B18188D30FF30016038
:1053A8007047C046F00D0020FF030000F0B5C64668
:1053B80000B580462A25454300240AE08022D20011
:1053C8009446634414E08022D2009446604411E07D
:1053D80001341F2C29DC2201154B9B188D33FF3318
:1053E8001868144B9842F3D0431B281A002BE5DBAE
:1053F8000028E8DB834200DC180022001932120181
:105408000B4B9B1859688142E2DB094F2301FB18BB
:105418009133FF331E687043FAF7F8FE321A3800EA
:105428000C304146FFF75BFED2E780BCB846F0BDC2
:10543800F00D00200104000010B50648FFF75CFEDF
:10544800002403E02000FFF7B1FF0134172CF9DD39
:1054580010BDC046FC0D002010B5184B1B685A2B18
:105468000BD0164B1B79002B13D0012B1FD0134BDD
:1054780001221A71FFF7FCFE18E001210020FFF756
:1054880079FF032149420120FFF774FFFFF7D4FF9A
:10549800E7E70A4A01231371136801331360642B89
:1054A80002DD130000221A60FFF734FF10BD034B22
:1054B80000221A71FFF7DCFEF8E7C046F00D002065
:1054C80030B589B0224B1860224B1960002304E0E4
:1054D800214AD218AA2111720133022BF8DD1F4C80
:1054E8002000FFF716FEFFF7C3FE0C3C00232360E5
:1054F8008D34FF342000FFF7A1FE80210A25009596
:10550800C8231422890004A8FFF792FE079B03937F
:1055180000930499059A069B2000FFF769FE009501
:1055280064236422642104A8FFF782FE079B039387
:1055380000930499059A069B2000FFF759FEFFF790
:105548007BFF044B1868FEF79DFF09B030BDC046CD
:105558008011002084110020F00D0020FC0D002097
:1055680010B500F07BFB00F079FB10BD10B50028EA
:1055780000D110BDFFF7F4FF0120FAE7014B1860D6
:105588007047C0468811002070B582B004000E0034
:10559800150001202040FFF7E9FFABB2A1B2074A8E
:1055A80010680122524200923200FDF7A1FE002845
:1055B80002D1013002B070BD0020FBE78811002045
:1055C80070B582B004000E0015000123434001208D
:1055D8001840FFF7CBFFABB2A1B2074A106801220F
:1055E800524200923200FDF73DFF002802D10130FF
:1055F80002B070BD0020FBE78811002010B5FFF74E
:1056080055FC10BDF0B5C64600B580460F00160023
:105618001D000020FFF710FC00210020FFF748FDC7
:10562800144C0123216862684046FFF72BFD0F21C7
:105638000020FFF73DFD0123216862683800FFF76D
:1056480021FD1E210020FFF733FD01232168626838
:105658003000FFF717FD2D210020FFF729FD01235A
:10566800216862682800FFF70DFDFFF7F7FB80BC93
:10567800B846F0BD0800002030B583B001AC102357
:1056880023709033637002222100D420FFF77CFF3F
:1056980001250540112323706F3363700222210016
:1056A800D420FFF771FF284003B030BD10B582B099
:1056B8000F236A46D37101226B46D91DD420FFF708
:1056C80063FF0124044060426041C0B2FFF74EFF0F
:1056D80001226B46D91DD520FFF772FF04406042B6
:1056E8006041C0B2FFF742FF6B46D87969380300C2
:1056F800581E8341D8B2FFF739FF200002B010BD11
:1057080010B5FFF7D3FF43425841C0B2FFF72EFF51
:10571800FFF7B2FF43425841C0B2FFF727FF10BD61
:10572800F0B5DE4657464E464546E0B583B005001F
:105738006B465C1C2823237001222100D420FFF72C
:1057480023FF012606402223237001222100D420B2
:10575800FFF71AFF064007236B44994601221900F8
:10576800D520FFF72DFF06402323237001222100B7
:10577800D420FFF709FF064006236B449A4601220E
:105788001900D520FFF71CFF3040070024232370A1
:1057980001222100D420FFF7F7FE384006006B46AF
:1057A8005F1D01223900D520FFF70AFF0640252397
:1057B800237001222100D420FFF7E6FE064001AB4A
:1057C800984601221900D520FFF7FAFE0640262345
:1057D800237001222100D420FFF7D6FE30408346F3
:1057E8006B46DE1C01223100D520FFF7E9FE5B463F
:1057F80003409B462723237001222100D420FFF772
:10580800C3FE5B4603409B466B469C1C012221005D
:10581800D520FFF7D5FE5B46184053461B781B0280
:105828001BB24A46127813432B8043461B781B024F
:105838001BB23A7813436B8023781B021BB2327871
:105848001343AB8003B0F0BCBB46B246A946A046A2
:10585800F0BD000070B584B005006B46D91D282343
:105868000B700122D420FFF78FFE0126064002AC00
:1058780006222100D520FFF7A3FE304001AB0B4ADA
:105888001A8063781B021BB2227813432B80E378BB
:105898001B021BB2A27813436B8063791B021BB2F5
:1058A80022791343AB8004B070BDC046FF7F00006F
:1058B80000B583B01B236A4613710B3B5371022258
:1058C80001A96020FFF760FE0123184003B000BD66
:1058D80010B582B039236A46D37101226B46D91DAF
:1058E8006020FFF751FE0124044060426041C0B2CD
:1058F800FFF73CFE01226B46D91D6120FFF760FED1
:10590800044060426041C0B2FFF730FE6B46DB796D
:10591800103B581E8341D8B2FFF728FE200002B082
:1059280010BD10B5FFF7D4FF43425841C0B2FFF78E
:105938001DFEFFF7BDFF43425841C0B2FFF716FEF8
:1059480010BD000070B584B005001B236A461371B2
:1059580006335371022201A96020FFF715FE0124C6
:1059680004406B460022DA706B4603331B785B06F3
:105978000FD401A918230B7001226020FFF704FE41
:10598800044001226B46D91C6120FFF719FE044030
:10599800EAE701AE00233370012231006020FFF7EF
:1059A800F3FD0440092231006120FFF709FE204081
:1059B800C0B27178090233781943F3781B02B278C0
:1059C800134372791202347922430901B479240904
:1059D80021431B01F479240923431201347A240951
:1059E8002243054CA4466144296063446B606244C9
:1059F800AA6004B070BDC0460000F8FFF0B5C64606
:105A080000B588B01422002103A800F04FFD284BF0
:105A18005A6B042188460A435A635A6B0A4000921B
:105A2800009A5A6B01252A435A635A6B2A400192FD
:105A3800019A596B0222114359635B6B1A40029217
:105A4800029B8C246400A026F60500222100300069
:105A5800FDF77CFA174F002204213800FDF776FA8B
:105A68000394049500240594069403A93000FDF7D7
:105A7800A3F9032303930493059403A93800FDF7BE
:105A88009BF94346039304950594069403A93800AB
:105A9800FDF792F980235B0103930494059403A90D
:105AA8003000FDF789F908B080BCB846F0BDC046A3
:105AB800001002400004005010B50D4C0D4B23603F
:105AC8000D4B63600023A3600122E26023616361E0
