:020000040800F2
:100000000090002021270008E5260008E9260008C6
:1000100000000000000000000000000000000000E0
:10002000000000000000000000000000ED260008B5
:100030000000000000000000F1260008F52600087E
:1000400071270008000000007127000871270008D0
:100050007127000871270008712700087127000820
:1000600000000000712700087127000871270008B0
:1000700071270008712700087127000800000000A0
:10008000FD26000871270008712700087127000865
:1000900071270008712700087127000871270008E0
:1000A00071270008712700087127000871270008D0
:0800B000712700087127000808
:1000B80010B5064C2378002B07D1054B002B02D036
:1000C800044800E000BF0123237010BD4004002055
:1000D8000000000064290008044B10B5002B03D071
:1000E8000349044800E000BF10BDC04600000000FE
:1000F8004404002064290008002243088B4274D37A
:1001080003098B425FD3030A8B4244D3030B8B4210
:1001180028D3030C8B420DD3FF22090212BA030C19
:100128008B4202D31212090265D0030B8B4219D3FA
:1001380000E0090AC30B8B4201D3CB03C01A52411A
:10014800830B8B4201D38B03C01A5241430B8B4262
:1001580001D34B03C01A5241030B8B4201D30B034B
:10016800C01A5241C30A8B4201D3CB02C01A524172
:10017800830A8B4201D38B02C01A5241430A8B4235
:1001880001D34B02C01A5241030A8B4201D30B021E
:10019800C01A5241CDD2C3098B4201D3CB01C01A38
:1001A800524183098B4201D38B01C01A5241430942
:1001B8008B4201D34B01C01A524103098B4201D330
:1001C8000B01C01A5241C3088B4201D3CB00C01A9D
:1001D800524183088B4201D38B00C01A5241430815
:1001E8008B4201D34B00C01A5241411A00D201463A
:1001F800524110467047FFE701B5002000F0F0F8C3
:1002080002BDC0460029F7D076E7704703460B4386
:100218007FD4002243088B4274D303098B425FD3F7
:10022800030A8B4244D3030B8B4228D3030C8B4223
:100238000DD3FF22090212BA030C8B4202D3121209
:10024800090265D0030B8B4219D300E0090AC30BDE
:100258008B4201D3CB03C01A5241830B8B4201D38B
:100268008B03C01A5241430B8B4201D34B03C01A74
:100278005241030B8B4201D30B03C01A5241C30AEC
:100288008B4201D3CB02C01A5241830A8B4201D35D
:100298008B02C01A5241430A8B4201D34B02C01A47
:1002A8005241030A8B4201D30B02C01A5241CDD2EC
:1002B800C3098B4201D3CB01C01A524183098B4237
:1002C80001D38B01C01A524143098B4201D34B0120
:1002D800C01A524103098B4201D30B01C01A524183
:1002E800C3088B4201D3CB00C01A524183088B420A
:1002F80001D38B00C01A524143088B4201D34B00F3
:10030800C01A5241411A00D2014652411046704764
:100318005DE0CA0F00D04942031000D34042534069
:1003280000229C4603098B422DD3030A8B4212D329
:10033800FC22890112BA030A8B420CD3890192115B
:100348008B4208D3890192118B4204D389013AD098
:10035800921100E08909C3098B4201D3CB01C01A6D
:10036800524183098B4201D38B01C01A5241430980
:100378008B4201D34B01C01A524103098B4201D36E
:100388000B01C01A5241C3088B4201D3CB00C01ADB
:10039800524183088B4201D38B00C01A5241D9D2F3
:1003A80043088B4201D34B00C01A5241411A00D274
:1003B8000146634652415B10104601D34042002B70
:1003C80000D54942704763465B1000D3404201B5EF
:1003D800002000F005F802BD0029F8D016E77047A4
:1003E8007047C0460F4B10B519680400002901D1A9
:1003F800012010BDFA208000FFF77EFE0A4B0100A5
:100408001868FFF779FE00F083F80028F0D1032C74
:10041800EED801380022210000F03CF8034B002000
:100428001C60E6E70000002008000020040000200F
:100438008023084A5B00116810B50B430020136045
:10044800FFF7D0FF041E02D00124200010BD02F0E7
:1004580057F8FAE700200240034A0449136809687C
:100468005B1813607047C0465C0400200000002041
:10047800014B18687047C0465C040020034A0449D1
:1004880013680B40034313607047C04600000140E7
:10049800FFF9FFFF70B5002814DB154B03229C46BB
:1004A800FF23840810401A00C026C000890182403A
:1004B8000B408340A4006444B600A55995432B43E0
:1004C800A35170BD0B4A0F239446032203401040EA
:1004D800FC321500C000890185400A408240083B73
:1004E8009B089B006344DC69AC432243DA61E8E77C
:1004F80000E100E000ED00E0002805DB1F231840C4
:100508001E3B8340014A13607047C04600E100E08B
:100518008022431E5204012093420ED2C021074A72
:1005280007485360036A09061B021B0A0B43036250
:1005380000230020936007331360704710E000E049
:1005480000ED00E0F0B54546DE4657464E46E0B5BC
:100558000D68002383B0002D00D181E08C46012472
:1005680029009C4021400191254274D0624652687E
:10057800102116008E43022E00D178E00168013E5A
:100588008A465900884603214746B9408B46C943E5
:100598005F4689465146B9438B4603214746114079
:1005A800B9408A465946574639430160012E00D85A
:1005B80089E04C466146C668344026008C6841464E
:1005C8008C40802134434905C4600A4243D05249D3
:1005D8009C08884603211940C900A4004444884661
:1005E8000F214746B940266E8E43A021C90588428F
:1005F80011D04A49884200D18AE0494989460221F6
:10060800484505D0474989460521484500D17BE042
:100618004746B9400E43802126663F4C64580199ED
:10062800CE43D1036DD4344080213B4F7C50842489
:100638003C59910362D434408421374F7C503C6844
:10064800D10258D4344034490C604C6892024FD4DB
:100658003440314A54602A000133DA4000D07EE742
:1006680003B0F0BCBB46B246A946A046F0BDDE08C2
:10067800B6008619316A89460721194089008846DB
:100688000F214746B9408A4649465746B9438946E5
:10069800614647460969B94088464946474639434D
:1006A80031625900884603214746B9408A46C94302
:1006B8008946514606688E43B24603261640BE4018
:1006C80051460E4306604946866831408A4661466F
:1006D800CE6841468E4051460E43012186604668E9
:1006E800A643340016090E409E402643466060E744
:1006F800019A1443ADE701990C43A4E701990C430F
:100708009AE701990C438FE70321B9400E4382E72A
:100718000121B9400E437EE7001802400004005052
:1007280000080050000C0050002A01D08161704779
:100738008162FCE710B5041E4DD04123C35CDAB2D8
:10074800002B43D0412324220121E25423681A6854
:100758008A431A606168214A0A401A619A682049E6
:100768000A409A60E268012A2AD08421A068090216
:1007780001439960022A02D1802212015A60596805
:10078800184A00200A435A60DA6815490A40DA60B4
:10079800616922690A43A16909020A43DA60216A88
:1007A800E2690A4301211A601A680A431A600023A1
:1007B80041221F316364A15401322363A35410BD45
:1007C8008022A16812020A439A60D8E74033C254D3
:1007D80001F0B2FEB6E70120F1E7C046FFFFFFF0E7
:1007E800FF7FFFFF00800002F0B54125435D0A004E
:1007F800DEB2202B1BD14027C35D012B17D001216E
:1008080024238C46435503681C688C431C601C6871
:1008180008490C401C6019681143196061461A6840
:100828000A431A6000234655C3550020F0BD022034
:10083800FCE7C046FFEFFFFFF0B54125435DDEB2A0
:10084800202B1AD14027C35D012B16D024234355F2
:10085800233B9C460468090222689A432260226866
:10086800074B1A40114362462160236813432360F3
:1008780000234655C3550020F0BD0220FCE7C046C2
:10088800FFF0FFFF70B5134C134A2368002513408F
:100898000343236080239B00984201D0280070BD49
:1008A8000E4B0F491B685800C0184000FFF724FC86
:1008B80080236169DB001A000130194202D1EDE79B
:1008C800002805D0636901381342F9D10025E5E70E
:1008D8000325E3E700700040FFF9FFFF0800002050
:1008E80040420F00F0B5CE46474680B5040083B0BD
:1008F800002800D1F9E00368DA0731D53822C54964
:100908008868C9680240102A00D1F4E0082A00D19A
:10091800F5E0802263685202934200D102E1A021EF
:10092800C9028B4200D1D6E1BA4DBB492A680A40B8
:100938002A602A68B9490A402A60002B00D0F5E0ED
:10094800FFF796FD80270600BF0205E0FFF790FD40
:10095800801B642800D93DE12B683B42F6D123680F
:100968009A072CD53823AB4A91680B40D168102BD5
:1009780000D1ECE0002B00D0EEE013685B0500D559
:10098800AFE051686369A6481B0201400B435360FE
:10099800A04AA44913680B4021690B4313601368EC
:1009A800A14A9B045B0FDA401300A04A1360A04BD6
:1009B8001868FFF717FD002800D096E023681A078B
:1009C80071D45B0745D53823924A91680B40202B98
:1009D80000D1E7E080230020D16B5B0581461942F6
:1009E80008D1D16B1943D163D26B13400193019B9A
:1009F8000123994680278F4E7F0033683B4200D100
:100A0800D9E0A368012B00D128E1052B00D1BFE173
:100A18000121804EF26D8A43F265F26D03318A43FB
:100A2800F265002B00D01DE1FFF722FD022307002D
:100A38009846814D05E0FFF71BFDC01BA84200D971
:100A4800C8E04246F36D1A42F5D14B46012B00D15E
:100A58005AE1E369002B24D038226E4DA9680A4078
:100A6800102A00D110E1022B00D153E12B68734A00
:100A78008026134003222B60EB68B6049343EB6097
:100A8800EB686F4A1340EB60FFF7F2FC040005E0E7
:100A9800FFF7EEFC001B022800D99BE02B683342CD
:100AA800F6D1002022E038225A4DA9680A40182AB7
:100AB8002FD0A369002B00D18EE001222B6E0227D4
:100AC80013432B66FFF7D4FC060005E0FFF7D0FCC4
:100AD800801B022800D97DE02B6E1F42F6D02368C8
:100AE8006FE7E368002B00D04BE7012003B0C0BCE0
:100AF800B946B046F0BDC9438A0700D009E7454A60
:100B08001268920300D42BE76268002A00D027E716
:100B1800EBE72A6E920700D453E7A269002A00D0B7
:100B28004FE7E2E73B4A11680B431360FFF7A0FC6D
:100B380080260500374FB60204E0FFF799FC401BFA
:100B4800642847D83B683342F7D0236808E70D3B51
:100B58000B40022B00D1C8E0E368002B4FD02D4E8C
:100B6800304A3368802713402269FF0013433360FB
:100B7800802332685B0013433360FFF779FC05007C
:100B880004E0FFF775FC401B022823D833683B427A
:100B9800F7D07268636922491B020A4013437360E5
:100BA80023680CE7D36D9B0700D452E7A368002B9A
:100BB80000D04EE799E733683B433360FFF758FCB2
:100BC800050033683B4200D01BE7FFF751FC401B90
:100BD8000228F6D9032089E701222B6E02279343C6
:100BE8002B66FFF745FC060004E0FFF741FC801B7D
:100BF8000228EFD82B6E1F42F7D12368E1E6054D96
:100C0800104A2B68802713402B60FFF731FCFF0048
:100C180006001EE000100240FFFFFEFFFFFFFBFF83
:100C2800FF80FFFFFFC7FFFF0024F400080000203B
:100C3800040000200070004088130000FFFFFFFE42
:100C4800FFFFFEEFFFFEFFFFFFF712FC801B0228ED
:100C5800C0D82B683B42F7D12368B0E65149CA6D2A
:100C68001343CB65FFF704FC4E4B0600984602275A
:100C78004D4D04E0FFF7FCFB801BA842AAD8434671
:100C8800DB6D1F42F6D0E0E6012B00D12DE70323F0
:100C9800EA68216A13408B4200D026E77023616A14
:100CA80013408B4200D020E7FE21A36AC9011140FE
:100CB8001B02994200D018E7F823E16A9B0313400E
:100CC8008B4200D011E7236B520F52079A4200D093
:100CD8000BE700200AE78021324BC902186801435C
:100CE800196019680A431A6020E713685B0503D581
:100CF800E368002B00D1F8E6516863692B481B02B2
:100D080001400B43536052E6264A2949D36B0B40F6
:100D1800D3639EE62B68274A802713402B60FFF792
:100D2800A7FBBF04060005E0FFF7A2FB801B022813
:100D380000D94FE72B683B42F6D1616A236AEA681B
:100D48000B431D49174E0A401343E26A1343226BB3
:100D58001343A26A12021343EB6080232A685B04E0
:100D680013432B608023EA685B051343EB60FFF7AE
:100D78007FFB80250400AD0405E0FFF779FB001B2D
:100D8800022800D926E733682B42F6D00020ADE6CA
:100D98000421044BDA6D0A43DA65DA6D03390A4334
:100DA800DA655FE70010024088130000FF80FFFF4C
:100DB800FFFFFFEFFFFFFFFE8C80C11F3823204A93
:100DC80010B591680B4205D113681E489B045B0F50
:100DD800D84010BD91681940082927D0916819405A
:100DE80010290DD091681940202921D0906803401E
:100DF800183B58425841FA234042DB011840E8E7C3
:100E0800D368D168DB43D0684906490F40040131F3
:100E1800440E9B070FD00B48FFF76EF96043084B51
:100E2800D968490F0131FFF767F9D2E70648D0E7DB
:100E380080200002CDE70448FFF75EF96043EEE743
:100E4800001002400024F40000127A00F8B5CE46E3
:100E5800474605000C0080B5002826D00722574ECB
:100E6800336813408B425ED32B689A070ED55A0716
:100E780005D5E0225249D201886802438A60504968
:100E880050488A680240A86802438A60DB072BD56D
:100E98006B684B4A012B00D17CE0022B07D0002B5A
:100EA80000D07DE01268520504D4012037E01268B2
:100EB8009201FAD50721424EB2688A431343B360C0
:100EC800FFF7D6FA382398463F4B0700994604E0C7
:100ED800FFF7CEFAC01B48453BD84346B2681A40D4
:100EE8006B68DB009A42F3D10722344E3368134013
:100EF800A34238D82B685B072DD4FFF75FFF304B30
:100F0800324A9B681B051B0F9B009B581F221340EE
:100F1800D8402F4B18602F4B1868FFF763FAC0BCF6
:100F2800B946B046F8BD336893430B433360FFF7C7
:100F38009FFA07239846244B070099464246336890
:100F48001340A34200D18FE7FFF792FAC01B484530
:100F5800F4D90320E3E71A4A1F4993680B40E9686C
:100F68000B439360C9E73368934323433360FFF728
:100F78007FFA07239846144B070099464246336880
:100F88001340A342B6D0FFF773FAC01B4845F5D902
:100F98000320C4E71268920300D58BE70120BEE75F
:100FA800032B05D0D26D920700D583E70120B6E761
:100FB800126E920700D57DE70120B0E700200240BD
:100FC80000100240FFF0FFFF88130000902900087E
:100FD8000800002004000020FF8FFFFF064B074A8F
:100FE8009B685B045B0F9B009B581F221340044ABD
:100FF8001068D8407047C04600100240D029000849
:1010080008000020F0B5CE46474680B503680400C6
:1010180083B000209A0350D58022564B5205D96BD5
:101028008046114200D182E08026534D76002B681D
:1010380033432B60FFF71CFA070005E0FFF718FAA7
:10104800C01B022800D97CE02B683342F6D0494DFA
:10105800C023EA6D9B00110019401A4221D0A069F3
:1010680088421FD08022E96DEE6D52023243EA6554
:10107800EA6D424B424E0B403240EA65EB65CB07C6
:1010880000D475E0FFF7F4F93E4B060002279946B5
:1010980004E0FFF7EDF9801B484552D8EB6D1F427D
:1010A800F7D0A169334A3548D36D03400B43D36564
:1010B80043460020012B48D02368DA0706D50325CC
:1010C8002C494A6DAA4365682A434A659A0706D59A
:1010D8000C2528494A6DAA43A5682A434A655A0639
:1010E80006D52449284D4A6D2A40E5682A434A65B1
:1010F8005A040AD51F4965694A6D920092082A4325
:101108004A658022D205954226D01B050AD5194A80
:101118002169536D1D4C23400B4353658023DB012C
:1011280099421FD003B0C0BCB946B046F0BDD96BD8
:101138001143D963DB6B1A400192019B0123984646
:1011480072E743460320012BB6D10A4A1049D36BF4
:101158000B40D3632368B0E78022CD6852022A434C
:10116800CA60D2E78023D1685B020B43D360D9E71A
:10117800010097E70010024000700040FFFCFFFFED
:10118800FFFFFEFF88130000FFCFFFFFFF3FFFFFB9
:10119800FFFFFFEFF8B5C02704000D0016007F0120
:1011A80023686A1C14D1C022520199681142FCD1EB
:1011B80080219A681142FCD1C0229868D20011009F
:1011C800104203D01A7B9A680A42FBD10020F8BD6E
:1011D8009A683A4226D0FFF74BF9801B8542DFD840
:1011E8002368E0215A688A435A6082226168520063
:1011F800914230D08021A26A89018A4206D11968B9
:101208001C480140196019680A431A605D230122CD
:10121800E2540022013BE254236E203213430320A0
:101228002366D4E7802705E0FFF722F92368801BAF
:101238008542D6D99A681742F6D1C027FF0006E042
:101248001B7BFFF715F92368801B8542C9D99A686B
:101258003A42F5D1BAE78021A26809028A4203D04E
:101268008021C9008A42C5D140211A688A431A6080
:10127800C0E7C046FFDFFFFFF8B5041E60D00023BB
:1012880083625D33C35CDAB2002B54D05D23022243
:101298004021E2542268E66813688B431360E02318
:1012A800DB009E422FD9F0231B019E424AD1236BBB
:1012B800A76A002B32D00021A5686368A0692B4378
:1012C80025692B4365692B43E5692B43256A2B4325
:1012D8008025AD0005402B433B431360636A656B73
:1012E80033432B430425000C284003430B4353602E
:1012F800D369184900200B40D361002301222366DB
:101308005D33E254F8BD9E420CD00023276BA362E4
:10131800002F0BD0802100274901CDE702230021AF
:101328002363C9E7236BA76A002B01D10123236339
:1013380080214901C0E75C33C25401F033F9A5E7C5
:101348000120DFE70023276BA362002FE6D00027E8
:10135800B1E7C046FFF7FFFFF0B5C6461D005C23A6
:1013680000B59046C25C04000F0082B0012A00D18B
:101378006EE00122C254FFF77BF85D22A35C0600F1
:10138800D8B2012B0AD002205D230122E2540022A8
:10139800013BE25402B080BCB846F0BD002FF3D048
:1013A8004346002BF0D00323A35400234246236670
:1013B800A287E28744222364A763A3520232A3527E
:1013C8002365E3648023A2681B029A4242D0236803
:1013D8001A0040211868014202D1186801431960B7
:1013E800E021E068C900884263D96168002950D0CB
:1013F800414601294DD0E18F002911D00227691CEF
:101408003DD19A6817424DD0A26B11880232D9603B
:10141800A263E28F013A92B2E287E28F002AF0D10A
:10142800320029002000FFF7B5FE002801D0202354
:101438002366A368002B06D101932368DA6801921A
:101448009B680193019B206E431E9841C0B29BE7A5
:1014580002209FE780212368C90118681A00014308
:101468001960B6E7A36B19880233D160A363E38FD1
:10147800013B9BB2E387E38F002BD1D022689368AE
:101488001F42EFD1FEF7F4FF801BA842F3D30320DD
:101498007AE739880237D960E18FA763013989B2C1
:1014A800E187A8E7FEF7E4FFE38F002BB8D02368B5
:1014B800A7E76268002A3AD04246012A37D0E38F6C
:1014C800002BADD002276B1C0FD025E0E28F012A3C
:1014D80039D9A26B11880232D960E38FA263023B2B
:1014E8009BB2E387E38F002B9AD023689A68174250
:1014F800ECD1FEF7BDFFF5E7E28F012A2ED9A26BEA
:1015080011880232D960E38FA263023B9BB2E38762
:10151800E38F002B00D183E723689A681742EBD149
:10152800FEF7A6FF801BA842F2D303202CE7E28F28
:10153800012A1ED93A880237DA60E38FA763023B93
:101548009BB2E387BBE7A26B12781A73A36B0133D4
:10155800A363E38F013B9BB2E387C3E7A26B1278D7
:101568001A73A36B0133A363E38F013B9BB2E38739
:10157800CEE73A781A73A36B0133A363E38F013B79
:101588009BB2E3879BE7C04610B5041E4CD03D23B1
:10159800C35CDAB2002B39D03D230222E25423681F
:1015A80022491A688B4218D021498B4233D02149ED
:1015B8008B4234D020498B4213D020498B4210D023
:1015C8001F498B420DD080218A43A1690A431A60C2
:1015D800E268DA6262689A6212E070218A43A1685E
:1015E8000A4318490A4021690A4380218A43A169AC
:1015F8000A431A60E268DA6262689A6262691A6388
:1016080001225A613D230020E25410BD3C33C254EC
:1016180000F0FCFFC0E770218A43A1680A4309492A
:101628000A4021690A43CEE70120EEE7002C014079
:1016380000040040002000400040014000440140F8
:1016480000480140FFFCFFFF012103680748DA68F2
:101658000A43DA609A680240062A05D007388242AF
:1016680002D01A6811431960002070470700010072
:101678003C2370B5C25C012A00D170E0012402222B
:10168800C4540133C25402684A4D93682B40936096
:101698000B68602B65D02FD8402B49D01FD9502B11
:1016A80015D14D68CB68116A166A1B01A6431662EC
:1016B800F0269469B44323430A24A1432943936140
:1016C800116293683C490B4057210B4393603D23BB
:1016D8000122C2540022013BC254002070BD202BBD
:1016E80002D020D9302BF2D19168334C21400B43E2
:1016F80007210B439360EAE7702B4BD08024A401A9
:10170800A342E4D193682D4C4D681C408B68C9688E
:101718002B4309020B432343936080239168DB0129
:101728000B439360D3E710211C008C43CFD1DBE738
:101738004D68CB68116A166A1B01A6431662F0262B
:101748009469B44323430A24A14329439361116252
:10175800936819490B4047210B439360B7E7022070
:10176800BCE71025146A4B68AC43C96814629569D4
:10177800134E090335402943A025146A1B01AC43C5
:1017880023439161136293680B490B4067210B4314
:1017980093609CE79368094C4D681C408B68C96846
:1017A8002B4309020B4377212343936093680B4330
:1017B80093608CE78800CEFF8FFFCFFFFF00FFFF0D
:1017C800FF0FFFFF7047C0467047C0467047C046CE
:1017D8007047C0467047C0460222036810B51969B1
:1017E80004000A4203D0D9680A4200D06EE00422FD
:1017F80019690A4202D0D9680A4254D108221969E3
:101808000A4202D0D9680A423CD1102219690A4218
:1018180002D0D9680A4222D1012219690A4202D0AB
:10182800D9680A4268D1802219690A4202D0D96867
:101838000A4268D11A69D20502D5DA6812066AD452
:10184800402219690A4202D0D9680A426AD1202284
:1018580019690A4202D0D9680A4247D110BD213A13
:101868001A6119322277DA69C0239B0020001A42D4
:1018780068D1FFF7A9FF2000FFF7AAFF002323770D
:101888002368C9E7113A1A610D322277DB69200013
:101898009B0754D1FFF798FF2000FFF799FF00231B
:1018A80023772368B1E7093A1A61073222779A69E0
:1018B800C0239B0020001A423ED1FFF785FF20007D
:1018C800FFF786FF00232377236897E7053A1A6115
:1018D800043202779B699B072BD1FFF775FF200025
:1018E800FFF776FF00232377236880E7413A20003B
:1018F8001A6100F059F8B1E7033A1A612000FFF7BE
:1019080061FF23688FE7023AFF3A1A61200000F06E
:101918004DF823688EE70D4A20001A6100F048F858
:1019280023688DE7813A1A612000FFF753FF236887
:101938008DE7FFF74BFFD5E7FFF748FFC2E7FFF753
:1019480045FFACE7FFF742FF98E7C046FFFEFFFF01
:101958003C2330B5C35C0C00012B1FD03D23022271
:10196800C25402680E4D53689168AA4211D070257E
:10197800AB432568A4682B438025A94321435360C2
:1019880091603D230122C2540022013BC254002031
:1019980030BD044D2B4065682B43E8E70220F7E78C
:1019A800002C0140FFFF0FFF7047C0467047C0463C
:1019B8007047C046F0B5C646040000B5002800D1FF
:1019C8003EE15923C35CDAB2002B00D1ACE05923C5
:1019D80002220121E254236820691A688A431A60A6
:1019E800A26819680243B84801400A436169A069BE
:1019F8000A43802109020A431A60226A596802438D
:101A0800B24801400A43E1690F200A43E1680A43EA
:101A1800802109010A435A60DA6A616A82430A43EB
:101A2800DA62AB4A934213D0AA4A934200D180E0CB
:101A3800A94A934218D0A94A934215D00123A387F3
:101A4800638700230120A364E36480BCB846F0BD2B
:101A5800A34B5A6D03231340022B00D1C4E0032B80
:101A680000D19BE0012B70D0FFF7B8FA636A002B16
:101A780070D14000636861685B081818FEF73CFB8A
:101A88000300103B974A9342D8D8974A23680240EC
:101A98000007400F1043D860002201205968934D79
:101AA800A26429402A25E264A08760875960996862
:101AB800A9439960196801431960E265FEF7D8FCEB
:101AC800236805001A68120711D58026FA27B6037D
:101AD800BF0006E0FEF7CCFC401BB84200D9A7E0E7
:101AE8002368DA691100314088463242F2D01A6818
:101AF800520711D58026FA27F603BF0006E0FEF745
:101B0800B7FC401BB84200D992E02368DB691A0091
:101B1800324090463342F2D059230122E254002247
:101B2800013B0020E25490E75833C25400F08CFD8A
:101B38004DE76B4B5A6D0C231340082B54D02AD811
:101B4800002B91D0042B00D078E7FFF737F9636AB0
:101B5800002B8ED0012B75D0022B00D183E0032BF4
:101B680000D182E0042B7CD0052B00D186E0062B27
:101B780000D18CE0072B00D191E0082B00D195E033
:101B8800092B00D198E00A2B00D19BE00B2B00D049
:101B98006FE7000A6DE70C2B00D04FE700295DD0F6
:101BA800012968D002296FD0032974D0042978D07C
:101BB80005297FD0062900D182E0072900D1AFE0AE
:101BC800082900D1B1E0092900D1B5E00A2900D1DE
:101BD800B7E00B3948424841454B40421840802302
:101BE8005B029C46604445E700292DD0012940D07E
:101BF800022947D0032950D0042955D0052957D0A8
:101C080006295BD0072900D18DE0082900D18FE093
:101C1800092900D18EE00A2900D190E00B39484209
:101C28004841344A344B94464042034063440CE0F4
:101C380059230122E2544246013B0320E25404E7BF
:101C4800012002E7400814E72A4B62685008C018D0
:101C58001100FEF751FA0300103B13E78020400201
:101C680008E7C00805E7800803E70621FEF744FAFD
:101C7800FFE6224BE9E780200002FBE60A21FEF797
:101C88003BFAF6E61E4BE0E78020C001F2E60C21A5
:101C9800FEF732FAEDE61B48ECE61B4BD5E70009E8
:101CA800E7E680208001E5E6184BCEE74009E0E64C
:101CB800174BCAE71748DDE68009DAE6164BC4E792
:101CC8001648D7E6C009D4E6F369FFCFF6C0FFFF90
:101CD800003801400044004000480040004C0040EB
:101CE80000100240EFFF0000F0FF0000FFBFFFFF01
:101CF8000001FFFF0048E80148A019FE0024F40095
:101D080000127A00AA2A00005461510000093D001F
:101D180000D4300098190000AAB02800541500001B
:101D280080204001A6E6084B8FE780200001A1E64D
:101D3800064B8AE7064B88E78020C0009AE6054BE9
:101D480083E78020800095E680841E0040420F00D3
:101D580020A1070090D0030070B55824035D012B23
:101D680011D0592502230126435503681A681968BA
:101D7800B143196005490A40002141641A6046557B
:101D88000155002070BD0220FCE7C046FFFFFFDFC1
:101D9800F0B5D6464F4646465823C0B5C35C040046
:101DA8000A0084B0012B44D0592302216F46C15444
:101DB800056801392E682B688B432B60A9681E4B78
:101DC800C900C90811433A00A96003CB03C21B4BE1
:101DD800904603CB03C2636C002B26D04246AB6807
:101DE8009A46AB685B0FF85CD15CC000FEF70EFA50
:101DF80083B29946534642461B015B0FF85CD15C9F
:101E0800C000FEF703FA80B24B460122A38759238C
:101E180060872E60E25400220020013BE25404B0A7
:101E2800E0BCBA46B146A846F0BD01230120994658
:101E3800EAE70220F3E7C0467C2900088429000865
:101E4800F0B5D6464F4646465823C0B5C35C040095
:101E58000A0084B0012B44D0592302216F46C15493
:101E6800056801392E682B688B432B60A9681E4BC7
:101E7800194011433A001D4BA96003CB03C21C4B08
:101E8800904603CB03C2636C002B26D04246AB6856
:101E98009A46AB685B0FF85CD15CC000FEF7B6F9F8
:101EA80083B29946534642461B015B0FF85CD15CEE
:101EB800C000FEF7ABF980B24B460122A387592335
:101EC80060872E60E25400220020013BE25404B0F7
:101ED800E0BCBA46B146A846F0BD012301209946A8
:101EE800EAE70220F3E7C046FFFFFFF17C2900087C
:101EF80084290008F0B557464E464546DE469021EF
:101F0800002313229224E0B5942508269627490039
:101F1800826003604250BA32FF3283500F39C93AA7
:101F2800FF3AFF3964004161C2600151B731243C76
:101F3800FF31FF3C4450B839FF396D0001628661BA
:101F48004151B431FF3101344450B539FF390A34B5
:101F58007F00C1624462A246C151B5342A3FFF3FA7
:101F6800FF340751BA3CFF3CA446654684632A34D3
:101F7800FF34016305516C340251973CFF3CA04685
:101F880044640E34C46344462E35FF354451303D15
:101F9800FF3DA9464C469435FF3544514D463435EE
:101FA800FF3504658364445144465C354451583DCB
:101FB800C2654265425165468D32FF328550503ABE
:101FC8008766066687504C3286505246C26639325A
:101FD800043CFF3244670235845044328550093A44
:101FE800013CFF3A8450C8328167845006393C323C
:101FF8008150F83A83501334083A8450C8328350D9
:102008008133423AFF33FF3A05000700C25004000B
:1020180010329446BD35753B21379034FF35263153
:10202800FF3BFF376246D61A0A00A660183A172AFD
:10203800FCDC22607E502B6001330C340431043DFB
:10204800142BEFD18B2292009446002205005024D5
:102058002B269046F03584442200F11AA960183ADC
:10206800172AFCDC2A603951182B07D162464146F1
:102078006342D1500C3519230434EDE761466242BE
:102088008B5001330C350434182BE5D102000500C0
:1020980000248132E135FF32FF3502CA4B005B185C
:1020A8009B00C3185C60AA42F7D18C234B225B00CB
:1020B800C250183B323AC250F0BCBB46B246A946A1
:1020C800A046F0BD10B500236424012204309942D3
:1020D80005D0013302600C30182BF8D110BD046014
:1020E8004B1C0C301729F2D1F8E7C0466031890043
:1020F80009584B005B189B00C3185B68012093428A
:1021080000DC00207047C046F0B54D4EC64634008E
:102118004C4D300000B529680C3CFFF7D3FF22680E
:102128005A2A00D16FE02379002B10D0012B00D15F
:1021380078E001230022A0202371434B1021DA62AA
:10214800C0050132FEF7F0FA80BCB846F0BD013296
:10215800642A72DD00222360FA213B4B8900370094
:10216800D9620023002598460C3F00E03A68290010
:102178003000FFF7BBFF4346A8401843C3B2013500
:102188009846082DF2D10C3E270033720025002610
:102198000C372900380022680831FFF7A7FFA8404C
:1021A80001350643F6B2082DF3D1270066720025E3
:1021B80000260C372900380022681031FFF796FFF7
:1021C800A84001350643F6B2082DF3D11F4B210074
:1021D8001868FA2303229B000831A672FFF7BCF89F
:1021E800A02001220821C005FEF79EFAA0200022A7
:1021F8000821C005FEF798FAA02000221021C0058A
:10220800FEF792FAA0E72A680023162A00DC531C7E
:102218000F4C2B602379002B00D087E75B235B22D0
:10222800236099E70023A020074A23711021D36275
:10223800C0050122FEF778FA86E722608CE7C046DF
:102248006C040020500600200004004054060020C2
:10225800600400200D4B70B50D4C18600D4B20002C
:102268002381AA230C4D0C3000262960A372FFF7A6
:1022780041FEA020094B0122DE621021C005FEF7B5
:1022880053FA28682660FFF7DFF970BD540600206E
:1022980060040020AAAAFFFF58060020000400409E
:1022A80010B5FFF731FF10BD10B598B034220021EA
:1022B8000BA800F07DFA10220021684600F078FA99
:1022C8001C22002104A800F073FA80208000FEF789
:1022D800D9FA022300240B93FE330E930BA8C03BBC
:1022E80010930F941294FEF7FDFA07220023009230
:1022F8000193002200230021684602920393FEF70F
:10230800A5FD4122002304A8049205930794FEF733
:1023180079FE18B010BDC046F0B5C64600B58CB001
:10232800FEF786F8FFF7C0FF1422002106A800F088
:102338003FFA0422674BA020596BC005114359632B
:10234800596B00260A4001210092009A5A6B884670
:102358000A435A635A6B00270A400192019A0222E3
:10236800596B0024114359638C215B6B49001A4057
:1023780002920022029BFEF7D7F900220421564858
:10238800FEF7D2F98C22A0200123520006A9C0052D
:102398000692079308960997FEF7D4F803220323B9
:1023A8004D4806A9069207930894FEF7CBF8042235
:1023B8000123494806A90692079308960997FEF74C
:1023C800C1F88022A0200023520106A9C005069268
:1023D80007930894FEF7B6F8404D414B28002B6050
:1023E800404BAC606B6043462C61EB606C61AC6148
:1023F800EC612C62FEF79EF900212800FEF7F4F943
:1024080000212800FEF718FA374D384B28002B60BA
:1024180082235B006B6080231B02AB60E023DB0040
:10242800EB6080239B00AB61813BFF3B2B62793BD8
:10243800EB622C616C61EC616C62AC622C636C6366
:10244800FEF71AFF2A4E2B4B30003360E1235B0264
:1024580073600C23B4607361F4603461B461F46137
:10246800346274623464FFF7A5FA00213000FFF784
:102478008FFC00213000FFF7E3FC3000FFF76CFC15
:102488001022002106A800F093F90C22002103A8CD
:1024980000F08EF9184E194B3000336043467360D4
:1024A800FA239B00F360B4603461B461FFF76CF801
:1024B800802306A95B0130000693FFF7D9F803A92A
:1024C800300003940594FFF743FA31002800FFF722
:1024D800C1FEFEE700100240000400505C06002028
:1024E800005400405B3D3000A80600200030014049
:1024F8004C070020003801400C0700200004004071
:1025080001220C4B00B5196CC02011431964196CD9
:1025180083B00A4080210092009ADA6B49050A4389
:10252800DA63DB6BC0000B400193019BFDF7A6FF4C
:1025380003B000BD0010024010B5040088B014229A
:10254800002102A800F034F9134B22689A4201D006
:1025580008B010BD0223114C02A9626B10481A433F
:102568006263626B13400093C022009B12230292A5
:102578000393012200230492059306230693FDF793
:10258800E1FF8021E26B89030A43E263E36B0B40BE
:102598000193019BDCE7C046005400400010024054
:1025A8000004005010B5040088B01422002102A8CD
:1025B80000F0FEF8134B22689A4201D008B010BD13
:1025C8008020114B4001196C014319641A6C0240B8
:1025D8000092009A0122596BA020114359635B6B4A
:1025E80002A91A400192019B062202230292039338
:1025F80000220023049205930023C0050693FDF7EB
:10260800A1FFDBE7003001400010024000B50C4B91
:10261800026883B09A4201D003B000BD0223094A80
:102628001020D16B1943D163D26B00211340019361
:102638000022019BFDF72EFF1020FDF75DFFEBE761
:10264800000400400010024030B504008BB0142292
:10265800002104A800F0ACF81D4B22689A4201D072
:102668000BB030BD80201B4BC001196C0024014306
:10267800196401211A6C002502400192019A5A6BD3
:102688000A435A635A6B0A400292029A0222586B12
:10269800104358635B6BA0201A400392C022039B2F
:1026A8000223D2000891C00504A904920593069458
:1026B8000795FDF747FF0822022304920593042398
:1026C800054804A9069407950893FDF73BFFC7E75B
:1026D8000038014000100240000400507047C04616
:1026E800FEE7C0467047C0467047C04610B5FDF7C4
:1026F800B3FE10BD10B50348FFF76EF8FFF7D0FD25
:1027080010BDC0460C0700208022024B12059A60BB
:102718007047C04600ED00E00D488546002103E003
:102728000C4B5B58435004310B480C4B42189A42EF
:10273800F6D30B4A02E0002313600432094B9A4295
:10274800F9D3FFF7E1FF00F011F8FFF7E5FDFEE729
:1027580000900020002A0008000000203C0400200F
:1027680040040020D0070020FEE7000070B50C4DA3
:102778000C4E761BB61005D0002408CD01349847BE
:10278800A642FAD100F0EAF8074D084E761BB610BB
:1027980005D0002408CD01349847A642FAD170BD6F
:1027A800F4290008F4290008F4290008FC29000885
:1027B800F0B5050083074AD0541E002A44D0030010
:1027C8000322CEB202E00135013C3DD301332E7025
:1027D8001342F8D1032C2FD9FF220A4015021543C2
:1027E8002A0415430F2C35D92700103F3F093E0115
:1027F800B4461E001A001036664415605560956090
:10280800D5601032B242F8D10F260C2201373F01B1
:102818002640DB193700224217D03E1FB608B40005
:10282800A4461A001C1D644420C2A242FCD1032401
:102838000136B6009B193C40002C05D0C9B21C19C2
:10284800197001339C42FBD1F0BD3400F4E7140049
:102858000300BFE72700E0E7034B10B5002B02D0C9
:10286800024800F005F810BD0000000089280008A3
:1028780010B5010000230022002000F019F810BD57
:1028880070B5074D074C641BA41005D0013CA3008C
:10289800EB589847002CF9D100F066F870BDC04697
:1028A800FC290008002A00087047C0467047C04647
:1028B800F0B5D6464F464646C0B5264F82B006000C
:1028C8003868924698468946FFF7EEFF224B1B6808
:1028D8000193A423019A5B00D558002D2ED06C6873
:1028E8001F2C30DC002E0FD1631C6B604B4602346A
:1028F800A40038686351FFF7D9FF002002B0E0BC9C
:10290800BA46B146A846F0BD882251462800A30021
:10291800EB189950873AA2408930FF30016811437B
:1029280001608421404649005850022EDCD12B001A
:102938008D33FF3319680A431A60D5E715004D3502
:10294800FF35D550CBE73868FFF7B0FF012040428C
:10295800D4E7C04638040020F0290008F8B5C0467E
:10296800F8BC08BC9E467047F8B5C046F8BC08BC21
:042978009E467047C0
:10297C000101010307010000080402040801010120
:10298C00000000000000000000000000000000003B
:10299C00000000000000000000000000000000002B
:1029AC000000000001000000020000000300000015
:1029BC0004000000060000000700000008000000F2
:1029CC0009000000000000000000000000000000F2
:1029DC0000000000010000000200000003000000E5
:0829EC000400000010000020AF
:0829F40061280008E100000861
:0429FC00B900000816
:102A000001000000040000000024F40000000000A9
:102A100000000000FC02002064030020CC03002022
:102A200000000000000000000000000000000000A6
:102A30000000000000000000000000000000000096
:102A40000000000000000000000000000000000086
:102A50000000000000000000000000000000000076
:102A60000000000000000000000000000000000066
:102A70000000000000000000000000000000000056
:102A80000000000000000000000000000000000046
:102A90000000000000000000000000000000000036
:102AA0000000000000000000000000000000000026
:102AB0000000000000000000010000000000000015
:102AC0000E33CDAB34126DE6ECDE05000B000000DA
:102AD00000000000000000000000000000000000F6
:102AE00000000000000000000000000000000000E6
:102AF00000000000000000000000000000000000D6
:102B000000000000000000000000000000000000C5
:0C2E30000000000000000000AC070020C3
:0400000508002721A7
:00000001FF
